:100000006F004050000000002003000024030000A7
:1000100000000000000000000000000000000000E0
:1000200000000000000000000000000000000000D0
:10003000D204000000000000D40400000000000012
:10004000D6040000D8040000DA040000DC0400003C
:10005000DE040000E0040000E2040000E40400000C
:10006000E6040000E8040000EA040000EC040000DC
:10007000EE040000F0040000F2040000F4040000AC
:10008000F6040000F8040000FA040000FC0400007C
:10009000FE04000000050000020500000000000052
:1000A000511126C022C206C4828282441244A24058
:1000B000310182802A86014593F6150091C232955E
:1000C00085810606F5F9828000000000634E050276
:1000D00063C305042E86AA857D5515C285466378BF
:1000E000B6006356C00006068606E36CB6FE014500
:1000F00063E4C500918D558D85820582F5FA828075
:100100008682C93F2E8582823305A04063D70500D1
:10011000B305B040C1B7B305B0408682653F330533
:10012000A0408282868263C70500634905005D376F
:100130002E858282B305B040E35B05FE3305A04007
:10014000513F3305B04082820000EFF27FF541114C
:100150008545114502C202C402C6652B854541454D
:100160004D2B8545130500026D230944D1449307A7
:1001700000084C00371501407C8226C622C4112994
:10018000B71701404C0013850780608226C622C441
:10019000092191477C823EC0B71701404C0013856E
:1001A000078026C622C4F52682474C0026C67C82DC
:1001B000B71701401385074022C4E12E85474C0044
:1001C000371501407C823EC026C622C4D9261307BB
:1001D00000024C0037150140788226C622C4552EF5
:1001E00041474C0037150140788226C622C4552667
:1001F000130700044C0037150140788226C622C43C
:10020000492E82474C0026C67C82B71701401385D1
:10021000074022C4BD2E410149BDEFF27FE80589A8
:10022000054611E10146371501409145130505804A
:100230002529A5BDEFF2DFE60589054611E1014656
:10024000371501409145130505403929B9BDEFF235
:100250003FE50589054611E1014685453715014011
:100260002121A1B5EFF2DFE30589054611E1014641
:100270009305000237150140C52E05BDEFF25FE280
:100280000589054611E10146C14537150140E92EB2
:1002900029BDEFF2FFE00589054611E1014693050E
:1002A000000437150140C92609B5EFF27FDF058943
:1002B000054611E101463715014085451305054006
:1002C0006526E5B3EFF2DFDD937715002A84054557
:1002D00091E30145993793772400054591E3014562
:1002E000913F93774400054591E301458D3793771E
:1002F0008400054591E30145B53793770401054531
:1003000091E30145A53F93770402054591E301453B
:10031000493713740404054511E00145793771B379
:100320007300203001A0EFF2BFD711651111854590
:100330001305050202C002C202C402C602C802CAF4
:1003400002CCC12E930700027C80371401408D47F8
:100350003EC28A85E147130504403EC41D2C930725
:1003600000047C808A859147130504403EC415240F
:10037000F16737440140938707203EC66C00B707FA
:100380000C00130504803ECA02C8231C01004D2640
:100390008545130504809D21710101BBEFF25FD0FB
:1003A0000945C12CE120BD29716513050520C5292A
:1003B000B707002083A5070037150000130585EF58
:1003C000EF005031D122AA8537150000130585F0C2
:1003D000EF005030893F01448D3B1375F400DD354B
:1003E00005041305401F1374F40F9D29FDB7B717BB
:1003F00002409843B706FFFC1367170098C3D84321
:10040000758FD8C39843B706F7FEFD16758F98C34E
:100410009843B706FCFFFD16758F98C3D843C17685
:10042000FD16758FD8C337079F0098C7984F13677D
:10043000070298CF3717014083260740130607406D
:1004400093F6F6F02320D7408326074093E606086C
:100450002320D740094718CA372702401443F19A8E
:1004600014C3144314C3D843D8C38280EFF25FC3CC
:10047000371702405C43370400209146B18B1304C8
:1004800004006385D700A146638DD702B7376E019C
:10049000938707601CC0B7160240DC420840918376
:1004A00013F7F7008567938787F1BA978C23DC42AF
:1004B0003357B50093F7070899E329392A8718C0FD
:1004C000EDB65C43B777DC02938707C0E1B701A0C4
:1004D00001A001A001A001A001A001A001A001A014
:1004E00001A001A001A001A001A001A001A001A004
:1004F00001A001A001A001A001A001A001A001A0F4
:1005000001A001A09701002093814132138181FD58
:1005100017150000130505A297050020938585AEE9
:1005200017060020130686B063FAC5008322050073
:1005300023A0550011059105E3EAC5FE170500202B
:100540001305C5AE938581806377B5002320050030
:100550001105E36DB5FE93020008739002308D42E1
:1005600073904280970200009382C2A993E2320006
:1005700073905230EFF0BFE797020000938242E29F
:100580007390123473002030B7F7FF1F03A5477C28
:1005900082809C45611122C226C013F7070113F324
:1005A000F70001C7D8413363E30092211377F60FB8
:1005B00029C78323050001471304800293048004A4
:1005C0008546B395E600B376B6006392D5029312E2
:1005D0002700BD46B396560093C6F6FFB3F37600E8
:1005E000B3125300B3E37200639787064CC9050743
:1005F000A146E317D7FC232075001307F00F63789B
:10060000C70483234500A146130480029304800499
:100610000547B312D700337756006394E20213976D
:1006200026000117BD45B395E50093C5F5FFB3F36B
:1006300075003317E300B363770063928702232AC0
:10064000550085064147E395E6FC232275001244D8
:10065000824421018280E39C97F80CC949BFE39250
:1006600097FE23285500F1BF19C20CC982804CC9DE
:100670008280B707002023A4A7028280EFF25FA246
:10068000371702405C4391462A84B18B6385D700BB
:10069000A146638AD706B7376E01938707601CC0EF
:1006A000B7160240DC42918313F7F700B70700202A
:1006B00093878701BA978C23DC42184093F5F50F96
:1006C00093F707083355B70099E33A85213448C0BA
:1006D00008C448C4B7170240DC43AD83FD8B13D771
:1006E00037008A07F18BD98F93F637010D47637373
:1006F000D700D1173707002013074700BA978C237C
:10070000D13A08C85DB25C43B777DC02938707C073
:1007100079B799C5371702401C4F5D8D08CF82808D
:10072000B7170240984F1345F5FF798D88CF828027
:10073000EFF21F971629F577FD17F58FF621DA25C9
:100740002111D58F1EA95625FD779387379FF58FE9
:10075000D6212A842EC0D58F9625D58FB625D58F44
:100760005EA55E29C207C18393F7F7CF5D8F5AA9B3
:1007700048002937B74701409387078082456312B5
:10078000F406C2475A24139517003E9542070E05FA
:1007900041873E958C41635807048605EFF09F938F
:1007A000930540062AC0EFF0FF928247931445005C
:1007B000930540063E85EFF0BF945E24C207C187D3
:1007C00063D507020E059305400613052503EFF0D8
:1007D0007F901D89C98CC204C18006A461016FF09D
:1007E000DF8CB24745B78A0555BF12059305400611
:1007F00013052503EFF01F8E3D89E9BF91C55E25E6
:100800000967D98F5EA582805A25F977FD17F98F80
:10081000D5BF93F5F51F4EA182800A216D8D33352A
:10082000A0008280EFF2DF87B707002003A5070052
:10083000B7157A0093850520EFF0DF891375F50F62
:10084000B70700202387A70293175500898F8A07CF
:100850003E950E05B70700202396A7026FF0FF8490
:10086000EFF21F8437F400E05C40AA85F99B5CC07E
:10087000B707002003D5C702EFF0DF8308C82324A1
:1008800004001C4093E717001CC0B7F700E0D843F2
:10089000058B75DF9843799B98C36FF01F81EFF24A
:1008A0003F802A8411651111854513050502953590
:1008B000930700027C80371501408D473EC28A8530
:1008C000E147130505403EC4E93122C637440140E3
:1008D000B70708006C00130504803ECA02C8231C39
:1008E0000100B935854513050480093F71016FF09A
:1008F000CFFBEFF2EFFA7111AE840144635DC402E5
:10090000B7470140138707803A859305000432C03A
:100910002937B747014013870780024675D53387CB
:10092000840083050700138507800504C205C18183
:10093000CD350246E1B7328511016FF00FF7411155
:1009400006C62EC00DCD1841AA8705C358417D5556
:1009500011CB8546631BD70098472300070023A2CD
:1009600007000545B240410182809847824614A3A2
:100970009847050798C7D8437D17D8C3DDB7054604
:100980008A85853FF9BF011122CC2EC206CE26CA28
:100990002A84814793050002634506029245BE956D
:1009A000838505008DE563D8C70263D4E702198EFD
:1009B0001305000293F526002AC089C501E79305B7
:1009C00000032EC0858A814495EAB2840DA0850774
:1009D000F1B71D8EF1BF0146E1BF824522853AC8BD
:1009E00032C63EC4A93FA24732464247FD14E34601
:1009F00090FEB284635306008144058E63C7E7020C
:100A0000A68792463387974036978305070095ED72
:100A1000B28463449004635306000146F24062448A
:100A2000D2443305F600056182801D8FBA87930595
:100A30000003228532C83EC63AC41137B247224766
:100A40004246FD17EDF7BA9465BF228532C63EC413
:100A5000FD35A247324685076DB78245228532C4EF
:100A60003EC2F13DFD142246924765B7397106DE5C
:100A700022DC26DA3EC232833A8689ED924693071B
:100A8000000301476C08FC86FD3DF2506254D254CD
:100A900021618280AA843684AE8791CA29470144A5
:100AA0006317E30063D50500B307B04005448646ED
:100AB000A309010213073103938666FC36C49A85A5
:100AC0003E8532CA3AC81AC63EC0EFF06FE3A5466B
:100AD000824732434247524663D4A600A246369527
:100AE000130505039306F7FFA30FA7FE9A853E851E
:100AF00032CC3ACA1AC83EC636C0EFF0AFDDB247B4
:100B000042435247624663F9670401CC29CA9247BF
:100B1000898BB1C79305D002268532C40D35224694
:100B20007D169247918B95C306479307100632C4F2
:100B3000930500032685631EF70211359305800790
:100B40002685F53B224609047916164792468245CA
:100B50002685153D229515BFAA8702478DB7824687
:100B60009307D0020144A38FF6FE9307E7FF3EC030
:100B70004DBFF13393058005E1B701458280014502
:100B80008280130181FD22D026CE06D22AC4AE82F5
:100B9000328402C681448385020089EDA24781C761
:100BA00081453E85693B925002542685F2441301EB
:100BB00081028280930750026388F500224516C89F
:100BC0008504B53BC24239A88387120013871200FF
:100BD000639CB7002245930550023AC88D334247C3
:100BE0008504BA82850245BFD5DB9306B0026389CE
:100BF000D70463C8F600930630026386D7048147A2
:100C000005A09306D002638AD70093060003E398F9
:100C1000D7FE13872200894721A01387220085472A
:100C2000830607001306B0026383C6046341D6023D
:100C300013063002638BC602BA820145A54681A025
:100C4000138722006DBF138722009147D1BF13067F
:100C5000D0026389C60013060003E39FC6FC93E736
:100C6000270031A005078547C1BF93E74700050767
:100C7000E1B713162500329506053A9585020386DD
:100C80000200130706FD9375F70FE3F4B6FE130792
:100C9000E0029946631EE60085028146A54503866B
:100CA0000200130606FD1377F60F63F5E50236C65C
:100CB000038702001306A006630DC70A6343E6021A
:100CC0001306C0046307C70A13068006630CC7082F
:100CD00081452DA813972600BA968606B2968502FE
:100CE0007DBF130640076306C7081306A00763020B
:100CF000C7081306C0068145631AC70003861200A1
:100D00008D456314E6008502914585020386020045
:100D1000930300061307100663C4C30013071004EF
:100D20009303700663C4C306930350066353761897
:100D30009303700463C1C30493055004635BB61648
:100D400013073004E310E6EA18409303440016CA80
:100D5000230CE1001EC8A30C01000147BE862A86B1
:100D60002C0849A8038612008145E311E6FA89029E
:100D700071BF8502B1BF93063006E307D6FC63CE90
:100D8000C606930680056303D602A9BD9306300705
:100D90006304D60463CBC6029306F0066302D60E44
:100DA0009306000793E74700E31ED6E29146639F50
:100DB000D50A930384000C40504016CA3AC23EC084
:100DC0001EC8AA870147C146B9A093065007630809
:100DD000D6069306800745BF1840B7160000930358
:100DE0004400938586F211C3BA85324716CA1EC8DD
:100DF000BE862A862245413E0DA091466394D502C7
:100E0000930384000C40504016CA3AC23EC01EC82C
:100E1000AA870547A94622458D33C243AA941E845A
:100E2000D242C9B3B2460C4016C836C23AC0110409
:100E30002A878546294622451539AA9461B39146E9
:100E4000639DD500930384000C40504016CA3AC2FB
:100E50003EC01EC8AA87014775BFB2460C4016C8DF
:100E600036C23AC011042A878146E9B7B24616C88D
:100E70000C40414636C23AC011042A87814665BFFC
:100E80009146639ED500930384000C40504016CADF
:100E90003AC23EC01EC8AA870147A146ADBFB246AE
:100EA0000C4016C836C23AC011042A878146214632
:100EB00059B70C401306840040403AC22A872245A5
:100EC00032C83EC02286B687A94616CA4D39AA94B2
:100ED0004244B9B71301C1FD2EC832CAAA85100811
:100EE000014506C636CC3ACE3ED032C05939B24062
:100EF000130141028280000053797374656D436C65
:100F00006B3A25640D0A00004368697049443A252C
:100F10003038780D0A0000000102030405060708B6
:100F20000102030405060708286E756C6C29000091
:100F300000366E010204060804080C100810182080
:100F4000102030402040608001020304050607089D
:080F5000010203040506070875
:00000001FF
