:100000006F00C0750000000072030000760300005E
:1000100000000000000000000000000000000000E0
:1000200000000000000000000000000000000000D0
:100030002A070000000000002C070000000000005C
:100040002E070000300700003207000034070000D0
:1000500036070000380700003A0700003C070000A0
:100060003E07000040070000420700004407000070
:1000700046070000480700004A0700004C07000040
:100080004E0700005007000052070000A4040000C3
:1000900056070000580700005A0700000000000043
:1000A000511126C022C206C4828282441244A24058
:1000B00031018280634E050263C305042E86AA8542
:1000C0007D5515C285466378B6006356C0000606A6
:1000D0008606E36CB6FE014563E4C500918D558D3F
:1000E00085820582F5FA82808682C93F2E858282CA
:1000F0003305A04063D70500B305B040C1B7B305D1
:10010000B0408682653F3305A0408282868263C705
:100110000500634905005D372E858282B305B04036
:10012000E35B05FE3305A040513F3305B0408282BA
:100130000000EFF2FFF641118545114502C202C4ED
:1001400002C6EF00102085454145EF00901F854510
:1001500013050002EF00F01E0944D1449307000884
:100160004C00371501407C8226C622C4EF00E067B0
:10017000B71701404C0013850780608226C622C451
:10018000EF00A06691477C823EC0B71701404C004B
:100190001385078026C622C4EF00206582474C00E5
:1001A00026C67C82B71701401385074022C4EF00A2
:1001B000C063A1474C00371501407C8226C622C48B
:1001C000EF00A062930700024C00371501407C82CB
:1001D00026C622C4EF006061C1474C0037150140BC
:1001E0007C8226C622C4EF004060930700044C00C6
:1001F000371501407C8226C622C4EF00005F854788
:100200007C82B71701404C001385074026C622C4E4
:10021000EF00A05D410151BDEFF29FE80589054661
:1002200011C101469305000837150140EF004069F0
:10023000ADBDEFF2FFE60589054611C10146371550
:100240000140894513050580EF008067B9BDEFF2D5
:100250003FE5058911C50145C1370545D93FB1B510
:100260000145C13F05454D3FDDBFEFF27FE3058905
:10027000054611C10146371501409145130505801A
:10028000EF0000641DB5EFF2BFE10589054611C11D
:10029000014637150140914513050540152531B537
:1002A000EFF21FE00589054611C10146A14537154A
:1002B00001403925DDBBEFF2BFDE0589054611C1DE
:1002C00001469305000237150140DD2BF9BBEFF223
:1002D0003FDD0589054611C10146C145371501407D
:1002E000C523E1B3EFF2DFDB0589054611C1014605
:1002F0009305000437150140E12345BBEFF25FDAB7
:100300000589054611C1014637150140854513058C
:1003100005407D2359BBEFF2BFD8937715002A849F
:10032000054591E30145913793772400054591E315
:100330000145913F93774400054591E301458D3791
:1003400093778400054591E30145B5379377040120
:10035000054591E30145A53F93770402054591E3E7
:100360000145493713740404054511E00145793707
:100370002DBB7300203001A0EFF29FD21165111147
:1003800085451305050202C002C202C402C602C8A6
:1003900002CA02CCEF00E07A930700027C80371497
:1003A00001408D473EC28A85E147130504403EC4A3
:1003B0002D29930700047C808A859147130504400A
:1003C0003EC42521F16737440140938707203EC68C
:1003D0006C00B7070C00130504803ECA02C8231C3A
:1003E0000100EF005004854513050480EF007010F4
:1003F000710165B9EFF2DFCA4147C1476363A700E6
:10040000AA8713F7F70F85679387C73DBA978823A5
:10041000193761B9EFF2DFC885892A84014591E176
:10042000054535352285F93749B1EFF27FC7AA84F2
:10043000056531112E8413050580854502C402C669
:100440002318010002C002C2EF00A06F608437349D
:1004500001402C00130504C06486231701002315F6
:100460000100EF00C071130504C08545EF00E07A7C
:100470000546130504C08545EF00C0768545130584
:1004800004C0EF0040778547130730120A853EC24B
:1004900078805C81A5238545130504C0EF000073B7
:1004A000510121B1711122C0373401408545130536
:1004B00004C0EF00E0750DC9130504C08545EF00C9
:1004C000C07537040020B7070020034784029387D4
:1004D000970288231304840201EF81453D891D3F63
:1004E0001C208507858B1CA002441101730020305D
:1004F00085451181EDB7EFF2BFBA1301C1FD2AC2E4
:100500002EC04545854502C402C602C802CA02CCB7
:1005100002CE02D03D2585453705200091250D44AA
:100520009146F1442C0037150140748426C822C638
:100530006D2C89462C0037150140748426C822C6CC
:100540006D248247124737550040FC8693070040D0
:100550003ACAFC873707004091674C0813050540ED
:100560003ACC2310F1029526130141023DBEEFF271
:100570003FB3A945AA84993612051374050FA945FE
:1005800026859D3622951375F50F05B6EFF25FB1FE
:1005900071110945B9292D22EF00207871651305E5
:1005A0000520EF00C07AB707002083A507003715A4
:1005B00000001305853AEF00105D1D24AA8537154C
:1005C00000001305853BEF00105C7D339D369305DD
:1005D00040061305803E913D616589451305056A16
:1005E000193FB757004003D70740370400101304E2
:1005F0000404136707082390E74003D707401367F5
:1006000007402390E740B7540040A285138504407B
:10061000452E75D9C14513850440492EAA85137509
:10062000F50F2EC0A937B70700209387970288A33C
:1006300090238245371500001305853CEF00B05428
:10064000D9B7B71702409843B706FFFC13671700E6
:1006500098C3D843758FD8C39843B706F7FEFD16E5
:10066000758F98C39843B706FCFFFD16758F98C326
:10067000D843C176FD16758FD8C337079F0098C73A
:10068000984F1367070298CF37170140832607401A
:100690001306074093F6F6F02320D7408326074041
:1006A00093E606082320D740094718CA3727024097
:1006B0001443F19A14C3144314C3D843D8C382809B
:1006C000EFF21F9E371702405C433704002091462B
:1006D000B18B130404006385D700A146638FD70252
:1006E000B7376E01938707601CC0B7160240DC4223
:1006F0000840918313F7F70085679387C73EBA9741
:100700008C23DC423357B50093F7070881E7EFF0FD
:10071000FF9A2A8718C06FF05F995C43B777DC02B5
:10072000938707C0D1B701A001A001A001A001A03B
:1007300001A001A001A001A001A001A001A001A0B1
:1007400001A001A001A001A001A001A001A001A0A1
:1007500001A001A001A001A001A001A0970100201B
:100760009381C10C138181FD171500001305C5C9C4
:100770009705002093850589170600201306068B30
:1007800063FAC5008322050023A0550011059105D9
:10079000E3EAC5FE17050020130545899385C1804E
:1007A0006377B500232005001105E36DB5FE9302C4
:1007B0000008739002308D427390428097020000CF
:1007C0009382428493E2320073905230EFF07FE7DD
:1007D000970200009382C2DB7390123473002030C2
:1007E000B7F7FF1F03A5477C82809C45611122C299
:1007F00026C013F7070113F3F70001C7D84133638D
:10080000E30092211377F60F29C7832305000147E0
:1008100013048002930480048546B395E600B37602
:10082000B6006392D50293122700BD46B3965600D8
:1008300093C6F6FFB3F37600B3125300B3E372002E
:10084000639787064CC90507A146E317D7FC232009
:1008500075001307F00F6378C70483234500A14692
:1008600013048002930480040547B312D700337742
:1008700056006394E202139726000117BD45B39515
:10088000E50093C5F5FFB3F375003317E300B363D9
:10089000770063928702232A550085064147E39536
:1008A000E6FC232275001244824421018280E39CED
:1008B00097F80CC949BFE39297FE23285500F1BF72
:1008C00019C20CC982804CC98280EFF26FFD1111F0
:1008D00046212A8428002EC0F922C246C204C180C3
:1008E00093F404FCB7450F00938505243685C204B4
:1008F00036C2C180EFF08FFC458D420541814AA090
:100900001E209246C207C183F99BC207C1831EA065
:1009100082479043E1679387076A9315160063E661
:10092000C7043685EFF08FF9AA87420541819146C9
:100930006373D50091471395070141814AAC1E208E
:10094000024793E717001EA01E2056233227C20736
:10095000C183D18E93F757BFD58F1EA016275E2770
:10096000D58F1EA471016FF04FF48247EA23B1675F
:10097000FD176310F502B2953685EFF02FF44205AE
:1009800041819317450199E313651500A1675D8DBA
:1009900075B7B387C5008E07B385C7003685EFF0FE
:1009A000EFF14205418191675D8DE1BF711102C098
:1009B0002AC08247BE952EC082478A2311018280B9
:1009C000611102C002C293D7C5012AC23EC082474C
:1009D000A205A18199CB9247D1073EC29247884395
:1009E00021016D8D3335A00082809247C181E107DE
:1009F000EDB7B707002023A6A7028280B707002023
:100A00009387C7029443182181E63C21920721A8CD
:100A100094430546639FC6023C211031920763143C
:100A2000D60093E707F8B7E600E093F7F70FBA961A
:100A30002380F6408546935757003397E60054418C
:100A4000A5C2938707048A07B7E600E0B69798C364
:100A500082808C4389466391D50214313C216365C1
:100A6000D6008A06B6975DB79386E6038A06B697E0
:100A700093F7F70F920775B790438D46631CD60026
:100A800014313C216364D6008606E9BF9386C6070D
:100A90008606F1BF94439147E39EF6F81C31BDB73B
:100AA000938707064DB7EFF2AFDF371702405C437D
:100AB00091462A84B18B6385D700A146638DD70602
:100AC000B7376E01938707601CC0B7160240DC423F
:100AD000918313F7F700B707002093878701BA9730
:100AE0008C23DC42184093F5F50F93F70708335534
:100AF000B70081E73A85EFF06FDC48C008C448C40E
:100B0000B7170240DC43AD83FD8B13D737008A074C
:100B1000F18BD98F93F637010D476373D700D11747
:100B20003707002013074700BA978C23EFF00FD93F
:100B300008C86FF08FD75C43B777DC02938707C094
:100B400061B799C5371702401C4F5D8D08CF828071
:100B5000B7170240984F1345F5FF798D88CF8280F3
:100B600099C5371702405C4F5D8D48CF8280B7171B
:100B70000240D84F1345F5FF798DC8CF82801E21E2
:100B800037370140130707C0C207C1836306E5007A
:100B9000370700406316E500BA2193F7F7F8D98FBD
:100BA000FA2193F7F7CFC207C183D98F1EA1DE21A7
:100BB0005EB59E211EB5B7370140938707C0631409
:100BC000F5009C251EB985475EA982801E2189C536
:100BD00093E717001EA18280C207C183F99BC20759
:100BE000C183CDBF5E2501C6DD8D4EA5828093C534
:100BF000F5FFFD8DDDBF1E2189C593E707081EA106
:100C00008280C207C18393F7F7F7C207C183C5BFCC
:100C10000A296D8D3335A000828093C5F5FFC2058A
:100C2000C1810EA98280EFF2AFC71629F577FD17B3
:100C3000F58FF621DA252111D58F1EA95625FD77CE
:100C40009387379FF58FD6212A842EC0D58F96257E
:100C5000D58FB625D58F5EA55E29C207C18393F7D0
:100C6000F7CF5D8F5AA948003D3DB74701409387B4
:100C7000078082456312F406C2475A241395170071
:100C80003E9542070E0541873E958C416358070407
:100C90008605EFF0AFC2930540062AC0EFF00FC201
:100CA000824793144500930540063E85EFF0CFC37D
:100CB0005E24C207C18763D507020E05930540066F
:100CC00013052503EFF08FBF1D89C98CC204C180B5
:100CD00006A461016FF06FBDB24745B78A0555BFE5
:100CE00012059305400613052503EFF02FBD3D893E
:100CF000E9BF91C55E250967D98F5EA582805A2517
:100D0000F977FD17F98FD5BF93F5F51F4EA18280B6
:100D10000A216D8D3335A0008280EFF26FB8B707DE
:100D2000002003A50700B7157A0093850520EFF092
:100D3000EFB81375F50F2385A18093175500898FA0
:100D40008A073E950E052394A1806FF00FB6EFF24F
:100D50002FB52A8411651111854513050502D53378
:100D6000930700027C80371501408D473EC28A857B
:100D7000E147130505403EC4EFF03FA722C63744C4
:100D80000140B70708006C00130504803ECA02C882
:100D9000231C0100493D854513050480993F7101DD
:100DA0006FF0AFB0EFF2CFAF7111AE840144635D6D
:100DB000C402B7470140138707803A8593050004B2
:100DC00032C0B937B747014013870780024675D54F
:100DD0003387840083050700138507800504C20557
:100DE000C1811D370246E1B7328511016FF0EFABCB
:100DF000411106C62EC00DCD1841AA8705C3584122
:100E00007D5511CB8546631BD7009847230007000B
:100E100023A207000545B2404101828098478246DF
:100E200014A39847050798C7D8437D17D8C3DDB7E3
:100E300005468A85853FF9BF011122CC2EC206CE18
:100E400026CA2A848147930500026345060292451B
:100E5000BE95838505008DE563D8C70263D4E7029C
:100E6000198E1305000293F526002AC089C501E7F3
:100E7000930500032EC0858A814495EAB2840DA0B3
:100E80008507F1B71D8EF1BF0146E1BF824522857E
:100E90003AC832C63EC4A93FA24732464247FD1473
:100EA000E34690FEB284635306008144058E63C717
:100EB000E702A68792463387974036978305070057
:100EC00095EDB28463449004635306000146F240FA
:100ED0006244D2443305F600056182801D8FBA87D3
:100EE00093050003228532C83EC63AC41137B24783
:100EF00022474246FD17EDF7BA9465BF228532C6F8
:100F00003EC4FD35A247324685076DB7824522852E
:100F100032C43EC2F13DFD142246924765B7397195
:100F200006DE22DC26DA3EC232833A8689ED92461C
:100F30009307000301476C08FC86FD3DF2506254A4
:100F4000D25421618280AA843684AE8791CA29470F
:100F500001446317E30063D50500B307B0400544BF
:100F60008646A309010213073103938666FC36C443
:100F70009A853E8532CA3AC81AC63EC0EFF0CF966F
:100F8000A546824732434247524663D4A600A24652
:100F90003695130505039306F7FFA30FA7FE9A8561
:100FA0003E8532CC3ACA1AC83EC636C0EFF00F9121
:100FB000B24742435247624663F9670401CC29CAEB
:100FC0009247898BB1C79305D002268532C40D356F
:100FD00022467D169247918B95C3064793071006CC
:100FE00032C4930500032685631EF702113593056D
:100FF00080072685F53B2246090479161647924656
:1010000082452685153D229515BFAA8702478DB7D3
:1010100082469307D0020144A38FF6FE9307E7FFB1
:101020003EC04DBFF13393058005E1B70145828095
:1010300001458280130181FD22D026CE06D22AC42A
:10104000AE82328402C681448385020089EDA247C4
:1010500081C781453E85693B925002542685F24402
:10106000130181028280930750026388F5002245B4
:1010700016C88504B53BC24239A88387120013877E
:101080001200639CB7002245930550023AC88D3385
:1010900042478504BA82850245BFD5DB9306B0027C
:1010A0006389D70463C8F600930630026386D704C9
:1010B000814705A09306D002638AD70093060003F8
:1010C000E398D7FE13872200894721A013872200C7
:1010D0008547830607001306B0026383C604634195
:1010E000D60213063002638BC602BA820145A546BA
:1010F00081A0138722006DBF138722009147D1BFC3
:101100001306D0026389C60013060003E39FC6FCE2
:1011100093E7270031A005078547C1BF93E7470044
:101120000507E1B713162500329506053A958502A5
:1011300003860200130706FD9375F70FE3F4B6FE6E
:101140001307E0029946631EE60085028146A54525
:1011500003860200130606FD1377F60F63F5E5021A
:1011600036C6038702001306A006630DC70A634351
:10117000E6021306C0046307C70A13068006630C61
:10118000C70881452DA813972600BA968606B29601
:1011900085027DBF130640076306C7081306A00734
:1011A0006302C7081306C0068145631AC700038699
:1011B00012008D456314E600850291458502038681
:1011C0000200930300061307100663C4C30013074D
:1011D00010049303700663C4C3069303500663535D
:1011E00076189303700463C1C30493055004635BD2
:1011F000B61613073004E310E6EA184093034400E0
:1012000016CA230CE1001EC8A30C01000147BE86CC
:101210002A862C0849A8038612008145E311E6FAC4
:10122000890271BF8502B1BF93063006E307D6FC81
:1012300063CEC606930680056303D602A9BD930656
:1012400030076304D60463CBC6029306F00663023C
:10125000D60E9306000793E74700E31ED6E29146B9
:10126000639FD50A930384000C40504016CA3AC2CB
:101270003EC01EC8AA870147C146B9A093065007C1
:101280006308D6069306800745BF1840B7160000CE
:10129000930344009385C63F11C3BA85324716CAEB
:1012A0001EC8BE862A862245413E0DA09146639403
:1012B000D502930384000C40504016CA3AC23EC087
:1012C0001EC8AA870547A94622458D33C243AA9462
:1012D0001E84D242C9B3B2460C4016C836C23AC0C8
:1012E00011042A878546294622451539AA9461B3F7
:1012F0009146639DD500930384000C40504016CA6C
:101300003AC23EC01EC8AA87014775BFB2460C400C
:1013100016C836C23AC011042A878146E9B7B246D8
:1013200016C80C40414636C23AC011042A8781468D
:1013300065BF9146639ED500930384000C405040E6
:1013400016CA3AC23EC01EC8AA870147A146ADBF11
:10135000B2460C4016C836C23AC011042A878146EC
:10136000214659B70C401306840040403AC22A87F0
:10137000224532C83EC02286B687A94616CA4D39D4
:10138000AA944244B9B71301C1FD2EC832CAAA8536
:101390001008014506C636CC3ACE3ED032C0593987
:1013A000B24013014102828053797374656D436CBE
:1013B0006B3A25640D0A00004368697049443A2578
:1013C0003038780D0A000000726461743A253032BA
:1013D000783A253032780D0A000000003F065B4F56
:1013E000666D7D077F6F777C395E7971010203043A
:1013F000050607080102030405060708286E756C38
:041400006C29000053
:1014040000366E010204060804080C1008101820A7
:1014140010203040204060800102030405060708C4
:0814240001020304050607089C
:00000001FF
