:100000006F00805C00000000240300002803000053
:1000100000000000000000000000000000000000E0
:1000200000000000000000000000000000000000D0
:100030009605000000000000980500000000000088
:100040009A0500009C0500009E050000A005000028
:10005000A2050000A4050000A6050000A8050000F8
:10006000AA050000AC050000AE050000B0050000C8
:10007000B2050000B4050000B6050000B805000098
:10008000BA050000BC050000BE050000C005000068
:10009000C2050000C4050000C60500000000000005
:1000A000511126C022C206C4828282441244A24058
:1000B000310182802A86014593F6150091C232955E
:1000C00085810606F5F9828000000000634E050276
:1000D00063C305042E86AA857D5515C285466378BF
:1000E000B6006356C00006068606E36CB6FE014500
:1000F00063E4C500918D558D85820582F5FA828075
:100100008682C93F2E8582823305A04063D70500D1
:10011000B305B040C1B7B305B0408682653F330533
:10012000A0408282868263C70500634905005D376F
:100130002E858282B305B040E35B05FE3305A04007
:10014000513F3305B04082820000EFF27FF551113C
:100150008545114502C002C202C4EF0060678545B3
:100160004145EF00E066854513050002EF0040665B
:1001700089477C80B7170140414489441385078033
:100180008A8522C426C2E1218A8537150140648010
:1001900022C426C26D2911478A853715014078800F
:1001A00022C426C26D2121478A85371501407880F7
:1001B00022C426C269298A8537150140608022C47D
:1001C00026C27121130700048A8537150140788003
:1001D00022C426C2AD29130700088A8537150140BD
:1001E000788022C426C2A521B71701408A851385CD
:1001F0000740608022C426C2992931017DB5EFF203
:100200003FEA0589054611E1014637150140894558
:1002100013050580012B51BDEFF29FE805890546C6
:1002200011E10146894537150140ED29BDBDEFF2C9
:100230003FE70589054611E1014691453715014023
:10024000D521A5B5EFF2DFE50589054611E10146A7
:10025000A14537150140F92189BDEFF27FE40589F9
:10026000054611E10146C14537150140652935BDF7
:10027000EFF21FE30589054611E1014693050004ED
:1002800037150140452115B5EFF29FE10589054677
:1002900011E101469305000837150140612131B590
:1002A000EFF21FE00589054611E1014637150140CF
:1002B000C14513050540BD21CDBBEFF27FDE93772D
:1002C00015002A84054591E30145153F93772400E5
:1002D000054591E30145893793774400054591E34E
:1002E0000145B13793778400054591E30145993F76
:1002F00093770401054591E301458537937704021F
:10030000054591E30145AD3793770404054591E335
:1003100001456204953F618405456343040001453E
:10032000413761B37300203001A0EFF27FD7116530
:10033000111185451305050202C002C202C402C69E
:1003400002C802CA02CC6921930700027C803714DC
:1003500001408D473EC28A85E147130504403EC4F3
:10036000FD24930700047C808A859147130504408F
:100370003EC4F12CF16737440140938707203EC605
:100380006C00B7070C00130504803ECA02C8231C8A
:100390000100B1298545130504800523710131B39E
:1003A000EFF21FD01307B0059307B0056363A700F2
:1003B000AA8713F7F70F85679387C734BA978823FF
:1003C000ED3DE5B1EFF2DFCD397109458D268D2286
:1003D000292B7165130505209923B707002083A5F4
:1003E0000700371500001305C532EF00B036992C11
:1003F000AA85371500001305C533EF00B035353732
:10040000A9330144B7470140138707803A85930514
:100410000002F921B74701401387078065D93A8563
:100420006529938781801375F50F88A398239C0015
:10043000A2972380E7FC7D479387818063658700CF
:1004400005041374F40F9C233547E31DF7FA9C0051
:100450003E940A85A30F04FAEF00F0312A84137545
:10046000F50F3D3F1375F40F41460C100505EF00E5
:10047000303501440810EF00D034E374A4F89C0038
:10048000A29783C507FEB7470140138507808921DE
:10049000B7470140938707803E859305000889216F
:1004A000B74701409387078065D905041374F40F9B
:1004B000D1B7B71702409843B706FFFC1367170080
:1004C00098C3D843758FD8C39843B706F7FEFD1677
:1004D000758F98C39843B706FCFFFD16758F98C3B8
:1004E000D843C176FD16758FD8C337079F0098C7CC
:1004F000984F1367070298CF3717014083260740AC
:100500001306074093F6F6F02320D74083260740D2
:1005100093E606082320D740094718CA3727024028
:100520001443F19A14C3144314C3D843D8C382802C
:10053000EFF21FB7371702405C43370400209146A3
:10054000B18B130404006385D700A146638DD702E5
:10055000B7376E01938707601CC0B7160240DC42B4
:100560000840918313F7F70085679387873ABA9716
:100570008C23DC423357B50093F7070899E3993E83
:100580002A8718C01DB65C43B777DC02938707C083
:10059000E1B701A001A001A001A001A001A001A05C
:1005A00001A001A001A001A001A001A001A001A043
:1005B00001A001A001A001A001A001A001A001A033
:1005C00001A001A001A001A0970100209381014397
:1005D000138181E017150000130585F297050020AF
:1005E000938545A21386818063FAC50083220500A6
:1005F00023A0550011059105E3EAC5FE138581800E
:10060000938541816377B500232005001105E36DD3
:10061000B5FE93020008739002308D4273904280C1
:10062000970200009382029E93E232007390523050
:10063000EFF03FE897020000938202D973901234E2
:1006400073002030B7F7FF1F03A5477C82809C45CD
:10065000611122C226C013F7070113F3F70001C787
:10066000D8413363E30092211377F60F29C7832320
:100670000500014713048002930480048546B39566
:10068000E600B376B6006392D50293122700BD460A
:10069000B396560093C6F6FFB3F37600B312530039
:1006A000B3E37200639787064CC90507A146E317B9
:1006B000D7FC232075001307F00F6378C70483234A
:1006C0004500A14613048002930480040547B31239
:1006D000D700337756006394E20213972600011780
:1006E000BD45B395E50093C5F5FFB3F3750033172A
:1006F000E300B363770063928702232A55008506DF
:100700004147E395E6FC232275001244824421010F
:100710008280E39C97F80CC949BFE39297FE232897
:100720005500F1BF19C20CC982804CC9828023A632
:10073000A1808280EFF2DF96371702405C4391463A
:100740002A84B18B6385D700A146638DD706B7375E
:100750006E01938707601CC0B7160240DC4291838C
:1007600013F7F700B707002093878701BA978C2308
:10077000DC42184093F5F50F93F707083355B7009F
:1007800081E73A85EFF01F9548C008C448C4B71701
:100790000240DC43AD83FD8B13D737008A07F18B12
:1007A000D98F93F637010D476373D700D1173707F9
:1007B000002013074700BA978C23EFF0BF9108C8B9
:1007C0006FF0BF8E5C43B777DC02938707C061B7D9
:1007D00099C5371702401C4F5D8D08CF8280B7172F
:1007E0000240984F1345F5FF798D88CF8280EFF254
:1007F0003F8B1629F577FD17F58FF621DA252111A4
:10080000D58F1EA95625FD779387379FF58FD62163
:100810002A842EC0D58F9625D58FB625D58F5EA577
:100820005E29C207C18393F7F7CF5D8F5AA94800AD
:100830001137B74701409387078082456312F4065A
:10084000C2475A24139517003E9542070E0541876B
:100850003E958C41635807048605EFF0BF879305EA
:1008600040062AC0EFF01F87824793144500930586
:1008700040063E85EFF0DF885E24C207C18763D55E
:1008800007020E059305400613052503EFF09F842C
:100890001D89C98CC204C18006A461016FF0FF806C
:1008A000B24745B78A0555BF1205930540061305A3
:1008B0002503EFF03F823D89E9BF91C55E250967B9
:1008C000D98F5EA582805A25F977FD17F98FD5BF9C
:1008D00093F5F51F4EA182804A211375F51F828082
:1008E0000A216D8D3335A0008280EFF26FFBB707D0
:1008F000002003A50700B7157A0093850520EFF0C7
:100900006FFD1375F50F2389A18093175500898F0B
:100910008A073E950E052398A1806FF00FF9EFF23C
:100920002FF82A84116511118545130505024D35EF
:10093000930700027C80371501408D473EC28A85AF
:10094000E147130505403EC4193322C63744014030
:10095000B70708006C00130504803ECA02C8231CB8
:1009600001007135854513050480813F71016FF0E9
:10097000CFF3EFF2EFF27111AE840144635DC40274
:10098000B7470140138707803A859305000432C0BA
:10099000813FB747014013870780024675D53387EB
:1009A000840083050700138507800504C205C18103
:1009B00005370246E1B7328511016FF00FEF4111A3
:1009C00006C62EC00DCD1841AA8705C358417D55D6
:1009D00011CB8546631BD70098472300070023A24D
:1009E00007000545B240410182809847824614A322
:1009F0009847050798C7D8437D17D8C3DDB7054684
:100A00008A85853FF9BF011122CC2EC206CE26CAA7
:100A10002A84814793050002634506029245BE95EC
:100A2000838505008DE563D8C70263D4E702198E7C
:100A30001305000293F526002AC089C501E7930536
:100A400000032EC0858A814495EAB2840DA08507F3
:100A5000F1B71D8EF1BF0146E1BF824522853AC83C
:100A600032C63EC4A93FA24732464247FD14E34680
:100A700090FEB284635306008144058E63C7E7028B
:100A8000A68792463387974036978305070095EDF2
:100A9000B28463449004635306000146F24062440A
:100AA000D2443305F600056182801D8FBA87930515
:100AB0000003228532C83EC63AC41137B2472247E6
:100AC0004246FD17EDF7BA9465BF228532C63EC493
:100AD000FD35A247324685076DB78245228532C46F
:100AE0003EC2F13DFD142246924765B7397106DEDC
:100AF00022DC26DA3EC232833A8689ED924693079B
:100B0000000301476C08FC86FD3DF2506254D2544C
:100B100021618280AA843684AE8791CA2947014424
:100B20006317E30063D50500B307B040054486466C
:100B3000A309010213073103938666FC36C49A8524
:100B40003E8532CA3AC81AC63EC0EFF06FDBA546F2
:100B5000824732434247524663D4A600A2463695A6
:100B6000130505039306F7FFA30FA7FE9A853E859D
:100B700032CC3ACA1AC83EC636C0EFF0AFD5B2473B
:100B800042435247624663F9670401CC29CA92473F
:100B9000898BB1C79305D002268532C40D35224614
:100BA0007D169247918B95C306479307100632C472
:100BB000930500032685631EF70211359305800710
:100BC0002685F53B2246090479161647924682454A
:100BD0002685153D229515BFAA8702478DB7824607
:100BE0009307D0020144A38FF6FE9307E7FF3EC0B0
:100BF0004DBFF13393058005E1B701458280014582
:100C00008280130181FD22D026CE06D22AC4AE8274
:100C1000328402C681448385020089EDA24781C7E0
:100C200081453E85693B925002542685F24413016A
:100C300081028280930750026388F500224516C81E
:100C40008504B53BC24239A883871200138712007E
:100C5000639CB7002245930550023AC88D33424742
:100C60008504BA82850245BFD5DB9306B00263894D
:100C7000D70463C8F600930630026386D704814721
:100C800005A09306D002638AD70093060003E39879
:100C9000D7FE13872200894721A0138722008547AA
:100CA000830607001306B0026383C6046341D602BD
:100CB00013063002638BC602BA820145A54681A0A5
:100CC000138722006DBF138722009147D1BF1306FF
:100CD000D0026389C60013060003E39FC6FC93E7B6
:100CE000270031A005078547C1BF93E747000507E7
:100CF000E1B713162500329506053A95850203865D
:100D00000200130706FD9375F70FE3F4B6FE130711
:100D1000E0029946631EE60085028146A5450386EA
:100D20000200130606FD1377F60F63F5E50236C6DB
:100D3000038702001306A006630DC70A6343E60299
:100D40001306C0046307C70A13068006630CC708AE
:100D500081452DA813972600BA968606B29685027D
:100D60007DBF130640076306C7081306A00763028A
:100D7000C7081306C0068145631AC7000386120020
:100D80008D456314E60085029145850203860200C5
:100D9000930300061307100663C4C300130710046F
:100DA0009303700663C4C306930350066353761817
:100DB0009303700463C1C30493055004635BB616C8
:100DC00013073004E310E6EA18409303440016CA00
:100DD000230CE1001EC8A30C01000147BE862A8631
:100DE0002C0849A8038612008145E311E6FA89021E
:100DF00071BF8502B1BF93063006E307D6FC63CE10
:100E0000C606930680056303D602A9BD9306300784
:100E10006304D60463CBC6029306F0066302D60EC3
:100E20009306000793E74700E31ED6E29146639FCF
:100E3000D50A930384000C40504016CA3AC23EC003
:100E40001EC8AA870147C146B9A093065007630888
:100E5000D6069306800745BF1840B71600009303D7
:100E600044009385863B11C3BA85324716CA1EC813
:100E7000BE862A862245413E0DA091466394D50246
:100E8000930384000C40504016CA3AC23EC01EC8AC
:100E9000AA870547A94622458D33C243AA941E84DA
:100EA000D242C9B3B2460C4016C836C23AC0110489
:100EB0002A878546294622451539AA9461B3914669
:100EC000639DD500930384000C40504016CA3AC27B
:100ED0003EC01EC8AA87014775BFB2460C4016C85F
:100EE00036C23AC011042A878146E9B7B24616C80D
:100EF0000C40414636C23AC011042A87814665BF7C
:100F00009146639ED500930384000C40504016CA5E
:100F10003AC23EC01EC8AA870147A146ADBFB2462D
:100F20000C4016C836C23AC011042A8781462146B1
:100F300059B70C401306840040403AC22A87224524
:100F400032C83EC02286B687A94616CA4D39AA9431
:100F50004244B9B71301C1FD2EC832CAAA85100890
:100F6000014506C636CC3ACE3ED032C05939B240E1
:100F700013014102828029468145C1A2511122C23A
:100F800006C41307E6FF930720022E8463FAE700E6
:100F90002380050001442285A24012443101828051
:100FA000A947631DF600635B05009307D0029CA16F
:100FB0003305A0408545A2954D22F1BF8145E5BF8F
:100FC00075BFAA87850703C7F7FF6DFF3385A74065
:100FD0007D158280130141FD26D006D422D22AC677
:100FE0002EC032C2AE84138414008347F4FF3A85C6
:100FF00036CA3EC83AC43924C2472247D2463E9533
:101000000C31A189E1E11307D002639FE70A1C209C
:10101000054613842400638C061041476390E60262
:1010200013070003639CE7001C201307800593F758
:10103000F70D6399E70E1C30C1460904B704008020
:1010400019E293C4F4FFB68526853ECC32CA36C871
:10105000EFF00F8BC2462AC42685B685EFF08F8746
:10106000E2475246C246AA828145014565479383BD
:1010700007FD2543637873009383F7FB636077066E
:10108000938397FC63D3D306FD576389F502FD551F
:1010900063E6A2026395A200A24763C17702AA8514
:1010A00036851ECE16CC32CA36C8EFF0AF80F2437A
:1010B000E2425246C2461E95854565470504834770
:1010C000F4FF75B7A28405B71307B0026384E70085
:1010D000014691B71C2013842400DDBF9383F7F9E8
:1010E00063657700938397FA71BFFD57639FF5009F
:1010F00032479307200226851CC3924789EFA250EE
:10110000125482541301C102828019C23305A040D7
:101110009247F5D781C59307F4FF3EC09247024737
:1011200098C3F1BF9307000391FAA14601BF1307CB
:101130000003E38BE7EEA94611B797F7FF1F9387EC
:10114000E70B9C43B286985309E717F7FF1F130775
:10115000E7F32E86AA853E85B5BD1301C1FB22DECD
:1011600026DC2EC0B2842A841306500297050000A4
:1011700093854525080886C0D1201386E4FF130710
:10118000200282478146637EC70023800700814793
:1011900086407254E2543E85130141048280BA862F
:1011A0002A841387160036C6A685B386E7002285F3
:1011B0003AC436C03EC2EFE0BFF43C183E95034649
:1011C00085FD8247A6852285A38FC7FEEFE09FF0AD
:1011D00092472247B246E37494FC02473386D70015
:1011E000230007000147B385E640E353B7FAB38510
:1011F000E70003430600882105072380650008A255
:101200007D16D5B70325C50E828091ED71118A85B3
:10121000014501CA795591C61C229CC1082233356B
:10122000A00011018280014509CA795599C61C2286
:101230009CC108223335A00082808280B3C7A500FC
:101240008D8B3307C50081E78D4763E7C702AA8707
:10125000637EE50A942185078505A38FD7FEE3EB1E
:10126000E7FE8280942185078505A38FD7FEE3EBF7
:10127000E7FE02441101828093763500AA8789CA6D
:10128000942185078505A38FD7FE93F63700C5BF48
:101290009376C7FF138606FE63F5C706711122C059
:1012A000C04903A3050083A38500C0CB804D23A0C4
:1012B000670003A3450080CFC04D23A2670083A22F
:1012C000C50003A3050193854502C0CF03A4C5FF54
:1012D00023A4770023A6570023A86700938747021B
:1012E00023AE87FEE3EEC7FAE3F3D7F89041910708
:1012F000910523AEC7FECDBF90419107910523AE66
:10130000C7FEE3EBD7FEE3E7E7F48280828089CD76
:101310009307F00F63F7C7009307A0081CC17D5522
:10132000828090A105458280014582805379737443
:10133000656D436C6B3A25640D0A00004368697063
:1013400049443A253038780D0A000000008040C03A
:1013500020A060E0109050D030B070F0088848C8ED
:10136000048444C424A464E4149454D434B474F4BD
:101370000C8C4CCC068646C626A666E6169656D635
:1013800036B676F60E8E4ECE078747C727A767E795
:10139000179757D737B777F70F8F4FCF2FAF6FEF1D
:1013A0001F9F5FDF3FBF7FFF0102030405060708A1
:1013B0000102030405060708286E756C6C290000FD
:1013C00030313233343536373839616263646566BB
:1013D0006768696A6B6C6D6E6F7071727374757625
:1013E0007778797A0000000043000000504F53499D
:1013F000580000002E000000002020202020202087
:1014000020202828282828202020202020202020B4
:1014100020202020202020202088101010101010C4
:101420001010101010101010100404040404040410
:1014300004040410101010101010414141414141AA
:10144000010101010101010101010101010101018C
:10145000010101011010101010104242424242429C
:10146000020202020202020202020202020202025C
:101470000202020210101010200000000000000004
:10148000000000000000000000000000000000005C
:10149000000000000000000000000000000000004C
:1014A000000000000000000000000000000000003C
:1014B000000000000000000000000000000000002C
:1014C000000000000000000000000000000000001C
:1014D000000000000000000000000000000000000C
:1014E00000000000000000000000000000000000FC
:0C14F000000000000000000000000000F0
:1014FC0000366E010204060804080C1008101820AF
:10150C0010203040204060800102030405060708CB
:10151C00010203040506070800000000000000009B
:10152C0000000000000000000000000000000000AF
:10153C00000000000000000000000000000000009F
:10154C00000000000000000000000000000000008F
:10155C00000000000000000000000000000000007F
:10156C00000000000000000000000000000000006F
:10157C00000000000000000043000000000000001C
:10158C00000000000000000000000000000000004F
:10159C0000000000000000004300000000000000FC
:1015AC00000000000000000000000000000000002F
:1015BC0000000000000000004300000000000000DC
:1015CC00000000000000000000000000000000000F
:1015DC0000000000000000004300000000000000BC
:1015EC0000000000000000000000000000000000EF
:1015FC00000000000000000043000000000000009C
:10160C0000000000000000000000000000000000CE
:10161C00000000000000000043000000000000007B
:10162C0000000000000000000000000000000000AE
:10163C00000000000000000043000000000000005B
:10164C00000000000000000000000000000000008E
:10165C0000000000000000000E1300000A12000041
:10166C0000000000F8130000F4130000E413000065
:10167C00E4130000E4130000E4130000E413000082
:10168C00E4130000E4130000E4130000E413000072
:10169C00FFFFFFFFFFFFFFFFFFFFFFFFFFFF00004C
:1016AC0001004153434949000000000000000000C4
:1016BC00000000000000000000000000000000001E
:1016CC0000004153434949000000000000000000A5
:1016DC0000000000000000000000000000000000FE
:1016EC0000000000000000002800002000000000A6
:00000001FF
