:040000006F10401B22
:100004000000000000000000340F0000360F000064
:1000140000000000B2110000000000000000000019
:10002400B2110000B2110000000000000000000046
:10003400B211000000000000B21100000000000036
:10004400B2110000B2110000B21100000000000063
:10005400B2110000B2110000B2110000B211000090
:10006400B2110000B2110000B2110000B211000080
:10007400B2110000B2110000B2110000B211000070
:10008400B2110000B2110000B2110000B211000060
:10009400B2110000B2110000B2110000B211000050
:1000A400B2110000B2110000B2110000B211000040
:1000B400B2110000BC040000B2110000B211000033
:1000C400B2110000B2110000B2110000B211000020
:1000D400B2110000B2110000B211000000000000D3
:1000E400000000000000000000000000000000000C
:0C00F40000000000000000000000000000
:10010000397101436EC619A0397141536AC866CA74
:1001100062CC5ECE19A0397101535AD056D252D456
:100120004ED64AD826DA22DC06DE330161408282CE
:1001300041114AC026C222C406C68282B24D410184
:10014000024D924C224CB24B4101024B924A224A40
:10015000B2494101024992442244B24041018280A5
:100160003D432A876373C3029377F700BDEFADE584
:10017000937606FF3D8ABA960CC34CC30CC74CC796
:100180004107E36BD7FE11E28280B306C3408A06C3
:100190009702000096966780A6002307B700A30683
:1001A000B7002306B700A305B7002305B700A304D3
:1001B000B7002304B700A303B7002303B700A302CB
:1001C000B7002302B700A301B7002301B700A300C3
:1001D000B7002300B700828093F5F50F9396850052
:1001E000D58D93960501D58D61B79396270097021B
:1001F000000096968682E78086FA9680C1171D8F4A
:100200003E96E374C3F8A5B7EFF29FF28545054526
:10021000EF10204B85450565EF10C04825BFB73767
:100220000240130700042386E74013078004A386D7
:10023000E7401387818523A8E7401387818923AA94
:10024000E740370700201307873023ACE7401387C8
:10025000818D23AEE74009472391E742239507426A
:1002600023920742239607422393E7422397E742CC
:100270009387418223800700A38007002381070022
:10028000A381070023820700A382070023830700BE
:10029000A38307008280EFF2BFE941118545414504
:1002A00002C202C402C6EF10C041C1673EC24C0088
:1002B0009147371501403EC6EF00D078B7070200DE
:1002C0003EC24C0093078004371501403EC6EF0044
:1002D0007077410141B5EFF2BFE541112EC629CD3E
:1002E0005D3F370701401C4FB24593F707F3B1E17B
:1002F00093E78708B73402401CCF238004400537BA
:1003000093079002A38104402380F440FD57238388
:10031000F440930710F8A380F4409D472381F440F4
:100320000967B7E700E01384044023A2E710410106
:1003300015B593E7C70C7DBF370701401C4F373415
:100340000240294593F707F71CCF99472300F44053
:10035000EF10E048B7E700E023000440096723A25C
:10036000E718F1B79307F5FF93F7F70F19486364A0
:10037000F814EFF25FDA93874182AA979C231389DE
:100380004182054793F7F70F639707108547630589
:10039000F5001147631DE500B737024083C7C7402A
:1003A000054793F7F70F6310E50491832DA8130712
:1003B000E5FF1377F70F63EAE700B737024083C71B
:1003C000D7400D4793F7F70FF9BF1307B5FF137722
:1003D000F70F63E3E706B737024083C7E74093F7B9
:1003E000F70FE30405FD13F8470001476305080A0A
:1003F000B7340240B289131A250013F6170093840C
:100400002442A18B2A84D2949DCF1307000409CAE9
:100410009C201307000C93F7070499E313070008C7
:10042000B737024093870741D2978843B707002028
:100430004E863E953A95BDA0B737024083C7F74038
:1004400093F7F70F4DB709C69C2093F70704B1EF58
:1004500037370240130707415297A1E2C205C18115
:100460000CC3B737024093870742D29723903701D6
:100470009D47638FF9021387C1831C2333058900CD
:10048000850793F7F70F1CA39C20014793F7C70F2D
:100490009CA085471CA13A854DB90843B7070020A9
:1004A0004E863E95EF10404A6DBF130700048DBF86
:1004B00013876183D9B705473A858280011122CE1F
:1004C0003734024026CC4ACA4EC852C656C413041A
:1004D000044078207C301377F70F937627006386EB
:1004E000065E93F7F70F13F7070393060002630006
:1004F000D70C930600036303D7226312071613F782
:10050000F703630E071A8947631BF7143E341386FB
:1005100081D193C707083EB4184483D60184B70538
:10052000002042078606B29641839AA293060004F1
:100530009385853063EDE61A631D071A03D701849E
:10054000B73602403D460507420741832390E184C8
:1005500003D70184938606401A072E9798CE03D7B7
:1005600001846375E600239001848CCE83D7E183F8
:100570008507C207C183239FF18283D72184354732
:10058000637FF70C373702408357A742C207C18306
:10059000CD9BC207C1832315F7428357A74293E738
:1005A00087002315F7420547A38EE1824DA893F7F4
:1005B000F703930610026384D70C9306300263801E
:1005C000D70E639EE708938701839E23938401835C
:1005D000C207C18381E7930700083EB083C7218328
:1005E00093F70706ADEF83C7C182154793F7F70F5F
:1005F000638CE70419476394E7069E201307F00312
:10060000130400046365F7008220420441801389CB
:100610008183832909002286CE8513858185EF1089
:10062000A0329E20A29923203901818FC207C18365
:100630009EA0B73702402390874203D72742134733
:1006400007042391E74221A8373702408347374008
:1006500083C6018293F70708D58FA301F740B73708
:10066000024009472383E740938707407244E244EE
:100670005249C249324AA24A0561730020307E3095
:1006800093C707047EB07E30C207C183F19B93E716
:1006900027007EB093874182A3800700C9B77E34CC
:1006A00093C707047EB47E34C207C183F19B93E7EE
:1006B00027007EB493874182A38107004DB7184479
:1006C00093F70704C9DF03C7218393870183137757
:1006D000070619C3239007009E23C207C183C1F3F5
:1006E000B7370240239007421307000499BF13074E
:1006F000000481461385815503D601843388A60002
:100700001A062E9636961022850693F6F60F2300CB
:10071000C800E3E3E6FEA382E1840DB59307A00CD5
:100720003EB0938681859C22138621831CA29C3235
:10073000EE221387C1821CA303D82600938701836E
:100740008EA3938541832390050103D846009385AA
:10075000E182239005010C2213890183938921836F
:1007600093F5050613868185938741839386E182FD
:10077000A5C983C7090093F70702B1CB0023011471
:10078000133444007D14835709001307F0031374D6
:10079000F40F930400046366F70083540900C20455
:1007A000C180138A8183832A0A0026861385818566
:1007B000D685D694EF10401923209A009307F00FA6
:1007C000631AF410B73702401307F00C9DBD03C441
:1007D000090019801344140005883304804065B76C
:1007E0001823AD451377F70FE3EEE5FC8D650A0797
:1007F000938585DF2E97184302879A2389462183A4
:1008000093848183630ED7040D466306C70685472C
:10081000631EF7068D671387C7E683C7C7E698C0D0
:1008200001440357090063F4E7002310F9008357DC
:1008300009001307F003130A00046367F700035A63
:100840000900420A135A0A0183AA0400528613853A
:100850008185D685569AEF10200F23A04401B9BF99
:100860000D67130787E23C3398C03823A207BA9775
:10087000C207C18375B79E23054693F7F70F6381BF
:10088000C70289CB6385D702638AE70281471304D5
:10089000F00F41BF1387818198C083C7818149B719
:1008A0008D67138707E898C083C707E895BF8D67F2
:1008B000138707E998C083C707E99DB78D6713873A
:1008C00087EA98C083C787EAA1BF9E2393F7F70FF3
:1008D0002380F18283C7090003570900E207E187FB
:1008E00063D5071C9307000463E6E70083570900FC
:1008F000C207C183035709001D8F4207418323109C
:10090000E900373702402310F74293070004231110
:10091000F742B1B383C711821CA203570900854770
:10092000E3FAE7FA2310F90075B79E2393F7F70F60
:10093000A380F18205472381E18269BF03C70900D3
:100940007D8B11EF9E23054793F7F70FE394E7F8AC
:100950009387318298231377E70F98A3A5BF03C726
:10096000090009467D8BE31FC7E49E2393F7F70F29
:10097000E39A07E49622B73702401306100893F66D
:10098000F60F938707406386C6081306300863870F
:10099000C608E399E6E2239507022DBF03C70900C5
:1009A0007D8B05E79E23054793F7F70FE39CE7E070
:1009B0008D6783C7F7E293F70702E38507E0938724
:1009C000318298231367170049BF03C609000947FE
:1009D0007D8AE319E6DE9E2393F7F70FE39407DEA3
:1009E0009A22B7370240930610081377F70F9387C0
:1009F0000740630DD70093063008630ED700E3135A
:100A0000C7DCBA371367C700BAB7E9B5FA3313675B
:100A10003700FAB3C1B5FA3713673700FAB75DBDCF
:100A200023000600DDBD83C7090023100600FD8BEF
:100A300085E383C731820144858B99C389471CA212
:100A4000035709008947E3FBE7D62310F900BDB33C
:100A500083C5090089471304F00FFD89E392F5FE71
:100A60009A22B7370240930610081377F70F93873F
:100A70000740630ED700930630086304D702E311E2
:100A8000B7FCBE373147B18B639BE70039A0FE331B
:100A90000D4701448D8BE395E7FA85471CA201447D
:100AA00045B7FE370D478D8BC5B74207B7370240B4
:100AB00041839387074019E7239007021307000437
:100AC000BAB371BE13070008E5BF9377170085C35B
:100AD000A380018223800182A3810182238101827C
:100AE000A3010400EFF0AFF385477CA041B69377F4
:100AF000470095C791477CA02945EF00504E5830DC
:100B000093873182118B19C798231367270098A305
:100B10009C23A9BE98231377D70F98A381BE78A0F2
:100B2000B1B6EFF24FDF41118545114502C202C453
:100B300002C6EF00103985454145EF0090388545E4
:100B400037050200EF00D0390544C14491674C00DD
:100B5000371501403EC226C622C4EF00A06EA1692F
:100B60004C0037150140371901404EC226C622C439
:100B7000EF00406D930700104C00130509803EC242
:100B800026C622C4EF00006C930700204C0013051A
:100B900009803EC226C622C4EF00C06AA1474C00AD
:100BA000130509803EC226C622C4EF00A0694C008E
:100BB0001305098026C226C622C4EF00A068930749
:100BC00000024C00130509803EC226C622C4EF0075
:100BD0006067930700044C00130509803EC226C6D7
:100BE00022C4EF002066930700084C00130509801B
:100BF0003EC226C622C4EF00E06485679387078063
:100C00004C00130509C03EC226C622C4EF00806313
:100C1000E1474C00130509803EC64EC222C4EF00D6
:100C2000606237050708854513050520EF00A07BA6
:100C300041016FF08FD1EFF2AFCF0589054611E189
:100C4000014685653715014093850580130505C06C
:100C5000EF0020786FF00FD0EFF28FCD05890546B9
:100C600011E10146916537150140EF0080766FF084
:100C70006FCEEFF2EFCB0589054611E10146A16584
:100C800037150140EF00E0746FF0CFCCEFF24FCAA0
:100C90000589054611E1014637150140930500100D
:100CA00013050580EF00E0726FF0CFCAEFF24FC876
:100CB0000589054611E101463715014093050020DD
:100CC00013050580EF00E0706FF0CFC8EFF24FC65C
:100CD0000589054611E1014637150140A145130577
:100CE0000580EF00006F6FF0EFC6EFF26FC405896B
:100CF000054611E1014637150140C1451305058040
:100D0000EF00206D6FF00FC5EFF28FC20589054629
:100D100011E10146371501409305000213050580D6
:100D2000EF00206B6FF00FC3EFF28FC0058905460F
:100D300011E10146371501409305000413050580B4
:100D4000EF0020696FF00FC1EFF28FBE93771500AF
:100D50002A84054591E30145013793772400054531
:100D600091E30145393793774400054591E3014507
:100D7000313F93778400054591E30145053F937723
:100D80000401054591E30145913793770402054538
:100D900091E30145993F93770404054591E30145AB
:100DA00062049D3761840545634304000145AD3FFE
:100DB0006FF04FBAEFF2CFB785451145EF007010D5
:100DC000854537050200EF00B01185450945EF0064
:100DD000301185450545EF00F00C01456FF08FB7E8
:100DE00023900184239F018223910184938681D1E2
:100DF0008147414613971700369723100700850750
:100E0000E39AC7FE8280EFF20FB1370502080111A5
:100E10008545110502C202C402C602C802CA02CC3C
:100E200002CED12385451145EF00B0098545370530
:100E30002000EF00F00AB71401408967E149054935
:100E40004C00138504803EC24EC64AC4E52E116490
:100E50004C001385048022C24EC64AC4E526E167D1
:100E60009387076A3EC8B707FFBF3ECAE086B70749
:100E700000043754004089070C08130504403ECC99
:100E80001925130504408545EF00C06C8545130501
:100E90000440EF00E07005616FF02FABEFF2AFA7F9
:100EA000375400402A8993040440B7050200268580
:100EB000EF0060737DF91305044085453704030096
:100EC000B75400406525050493890440A2854E85EA
:100ED000EF00007065DD1385044001468945370445
:100EE0000700B7540040EF00806D13042408938975
:100EF0000440A2854E85EF00A06D65DDCA8513858F
:100F0000044037040700B7540040452D130444083B
:100F100013890440A2854A85652D6DDD85451385BD
:100F2000044095256FF06FA2EFF28FA0DD3EE13D0A
:100F30006FF04FA201A0B707EFBE37E700E093873D
:100F400007083CC701A0EFF2AF9E9307B00513045A
:100F5000B00563E4A7001374F50F228581370D6592
:100F6000130505EF22950821C5336FF0AF9E9DC58F
:100F7000EFF20F9C2E86B705002037E400E089646D
:100F800093858572AA952322941885460D45EFF026
:100F90006FBD0145232294106FF0CF9B01458280E5
:100FA00019E1814799A0938641849C227D4613874D
:100FB0004184AE97635DF60223800600DDB78507A6
:100FC0001CA393F7F60FE3FEB7FC3308D5001C23F0
:100FD0008348080085063308F60023001801E390D3
:100FE00068FE23000800230007003E8582808146BA
:100FF000138681533543F1B7EFF28F934111854545
:10100000214502C202C402C66D2D85679387078001
:101010003EC237150140C1473EC64C008547130507
:1010200005C03EC4052441016FF0CF92EFF2CF8D91
:101030000545DD238122EF00E0777165130505206A
:10104000EF00B0001305803EEF00C07CA5336D3784
:10105000E13D0145CD3DB707002083A5071F37358A
:101060000000130505ECEF005019C12AAA85373599
:101070000000130505EDEF005018EFF0EF987D2B01
:10108000AA850545EFF02FA5A13BB7E700E009676A
:101090003735000023A2E710130505EEB70900203D
:1010A000EF00F02681440149138B8159938989729D
:1010B00083C55184938C5184A1CD13858155CD3541
:1010C000AA8B15C913858153EF0050032A84137529
:1010D000F50F953D1375F40F41469385815905052C
:1010E000EF00700601445A85EF0010236368A400E6
:1010F000DE850145AD3D23800C005DBF33078B00CD
:101100001823B30734010504420498A34180E1BFCA
:1011100013052003EF000070850493F4F40FA94732
:10112000E3F897F805091379F90F4A8529368144C0
:1011300041B7B71702409843B70600F99386F6F512
:101140001367170098C3D84313670705D8C3D8435C
:10115000758FD8C3372702401443F19A14C3144340
:1011600093E6260014C3D8431377F7F0D8C3D843C7
:10117000D8C38280B7160240DC42918313F7F70090
:10118000B707002093870700BA979C23D44237778C
:10119000DC0293F7F70F130707C093F606083356E0
:1011A000F70099E23356F702B707002023A8C71EBD
:1011B000828001A0970100209381C1831741002004
:1011C000130141E417250000130505F697F5FF1FED
:1011D000938545E31386018263FAC50083220500E7
:1011E00023A0550011059105E3EAC5FE1385018290
:1011F0009385C15D6377B500232005001105E36D7C
:10120000B5FEFD42739002BC8D4273904280930202
:1012100080087390023097F2FFFF9382E2DE93E240
:10122000320073905230EFF0DFF0970200009382AB
:1012300022E07390123473002030B7F7FF1F03A52C
:10124000477082809845937707011378F70081C72C
:10125000DC413368F8009441814713F6F60F39C238
:101260001C410146854E3D4F930F8002930280043E
:10127000214EB398CE00B3F516016391B802131353
:101280002600B3156F0093C5F5FFED8F331368008B
:10129000B367F3006315F70F232A15010506E31A58
:1012A000C6FD1CC14166130606F0758E49C237F6AD
:1012B000FF1F032646701376060F7DE237160140A6
:1012C000930506806312B50C83A74180A145854E26
:1012D0003D4F930F800293028004414E3393BE0032
:1012E00033F666006312C302139625000116B31885
:1012F000CF0093C8F8FFB3F7F8003316C800D18FBA
:101300006312F70B232A65008505E399C5FD5CC1CF
:1013100037F6FF1F032646701376060F09EA3716C5
:101320000140930506806314B50823A2F180C167CC
:1013300063E6F604504D8147054E3D4F930F800202
:1013400093028004A14E93850701B315BE00B3F844
:10135000B600639115039398270033131F011343BD
:10136000F3FF3376C300B318180133E6C800631CDB
:10137000F7054CC98507E398D7FD50CD8280E31F60
:1013800057F02328150119BF930506C06315B50052
:1013900083A7818025BFE31BC5F283A7C1803DB72A
:1013A0005C412DB7E31257F623286500B1BF9305C2
:1013B00006C06315B50023A4F18095BFE319C5F6F7
:1013C00023A6F180ADB7E31757FAB315FE000CD191
:1013D00055B701CA93970501C1831CC9C1810CD1BE
:1013E00082804CC98280B708014083A74800135708
:1013F00005019316050137063000131345003D8B98
:10140000C1823378C500635003066313C80203A684
:101410004800370700F17D17F98F718F23A2E8008C
:101420009DC14581137505073395A600C98F21A875
:1014300013169500635D06003787FCFF7D17F98F53
:1014400099C1BE06D58F370701405CC3828037063D
:1014500020006313C80041071D463317E6001347F9
:10146000F7FFF98F75BF6315C80041070D46F5B743
:101470001316B500E34C06FE135715011377070743
:101480003397E600E9BFEFE2BFCA0111AA84422107
:1014900008082EC6C92AE24737470F00130707245A
:1014A00033D7E70242044180137404FC42044180B4
:1014B000B245E1669386066A598C42044180C2A017
:1014C0009A2042074183799B420741839AA0984121
:1014D00063E4E604060733D7E7029146BA8742077A
:1014E00041836373D7009147C207C183DEAC9E205E
:1014F000DA21B62593E717009EA09E20558FC207DC
:10150000C18393F757BFD98F9EA09A25DE25D98F27
:101510009EA405616FE01FC4F221B166FD16631140
:10152000D6028D463307D702B3D7E702C207C1837D
:101530001397470119E393E717002167D98F7DB708
:10154000E5463307D702B3D7E7021167C207C18365
:10155000D98FF9BF1E2189C593E717001EA182808C
:10156000C207C183F99BC207C183CDBF1E2189C5B4
:1015700093E707101EA18280C207C18393F7F7EF9C
:10158000C207C183C5BF1E2189C593E707201EA1DD
:101590008280C207C18393F7F7DFC207C183C5BF4B
:1015A0001E2189C593E707401EA18280C207C1831F
:1015B00093F7F7BFC207C183C5BF0EA9828093F717
:1015C000E50F19C293E71500C207C1831EA98280E7
:1015D0005E290A2D42055D8D6D8D220521810D8DBF
:1015E000133515008280411102C402C693D7C5018C
:1015F0002AC63EC4A247A205A18199CBB247D10712
:101600003EC6B247884341016D8D3335A0008280CC
:10161000B247C181E107EDB723A4A1848280377767
:1016200000401C4393F7F7F95D8D08C38280B777BC
:101630000040DC437D8D3335A0008280EFE25FAF58
:10164000952A854537050010612813050006C13F1E
:10165000294571221145E13F2A840145C9373335B7
:1016600080006FE03FAFB777DC02938707C01CC1F3
:1016700037160240584211839376F700370700204F
:101680001307070136971423504293F6F60F13768B
:10169000060833D7D70019E233D7D70258C118C587
:1016A00058C5828099C5371702405C4B5D8D48CB89
:1016B0008280B7170240D84B1345F5FF798DC8CB10
:1016C000828099C5371702401C4F5D8D08CF8280FC
:1016D000B7170240984F1345F5FF798D88CF828068
:1016E00099C5371702405C4F5D8D48CF8280B71790
:1016F0000240D84F1345F5FF798DC8CF8280EFE2C5
:101700003FA31629F577FD17F58FF621DA2501118C
:10171000D58F1EA95625FD779387379FF58FD62144
:101720002A842EC6D58F9625D58FB625D58F5EA552
:101730005E29C207C18393F7F7CFD98F5EA9080846
:101740001D37B747014093870780B245631EF402F7
:10175000F2476547B387E7029841930640060A07B8
:10176000B3D7E70233D7D702B3F7D70212079207EE
:1017700093872703B3D7D702BD8BD98FC207C18305
:101780001EA405616FE01F9DE247E1B791C55E258C
:101790000967D98F5EA582805A25F977FD17F98FE1
:1017A000D5BF93F5F51F4EA182800A216D8D33358B
:1017B000A0008280B707002083A7071F37177A0091
:1017C00013070720B3D7E70293F7F70F2387F184B6
:1017D0001307803EB387E7022396F1848280B7F730
:1017E00000E0D8438146799BD8C303C7E184330620
:1017F000A70290CBD4CB98431367070198C39843B3
:101800001367170298C3D843058B75DF9843799BFC
:1018100098C38280B7F700E0D8438146799BD8C34C
:1018200003D7C1843306A70290CBD4CB9843136768
:10183000070198C398431367170298C3D843058BD1
:1018400075DF9843799B98C38280EFE27F8E4111C8
:101850002A84854537050200613585451145953552
:1018600085450545B93D370507088545130505201C
:10187000EFF07FB722C037440040B70708008A85E1
:10188000130504403EC402C2231601008D3D854568
:1018900013050440E53D41016FE0DF8BEFE2BF87B8
:1018A000B7440040AE8932890144938404406345C3
:1018B00024014A856FE07F89930500042685F5356C
:1018C00065DDB38789008385070026850504C20589
:1018D000C181C13DE9BF138701811C439386C15D6E
:1018E0003E95636BD500B75600209386068063E56E
:1018F000A60008C33E858280FD57EDBF294681457D
:101900008DA6411122C406C61307E6FF93072002E5
:101910002E8463FAE7002380050001442285B2404B
:10192000224441018280A947631DF600635B0500E4
:101930009307D0029CA13305A0408545A29581263E
:10194000F1BF8145E5BF75BFB3C7A5008D8B3307D8
:10195000C50081E78D4763EDC700AA87637EE50870
:10196000942185078505A38FD7FEE3EBE7FE8280F0
:1019700093763500AA8789CA942185078505A38FA8
:10198000D7FE93F63700C5BF9376C7FF138606FED2
:1019900063F0C70683A3050083A2450083AF8500DB
:1019A00003AFC50083AE050103AE450103A3850166
:1019B00083A8C5019385450223A0770003A8C5FF2E
:1019C00023A2570023A4F70123A6E70123A8D701E8
:1019D00023AAC70123AC670023AE170193874702F0
:1019E00023AE07FF75B790419107910523AEC7FE5F
:1019F000E3EBD7FEE3E6E7F6828039713EDA2ED2DA
:101A000032D436D63AD842DC46DE9387418122CCA6
:101A1000804326CA06CEAA8409C41C4C99E32285B9
:101A2000ED250C4454102686228536C6EF00F0348E
:101A3000F2406244D24421618280011126CA4AC820
:101A400006CE22CC4EC652C4AA842E8901C51C4D96
:101A500091E3652D9C4C804499E326857D2597175D
:101A6000000093876753631BF402C0405E24A18B80
:101A7000B1C71C48A1C7FD59294A1C448345090028
:101A8000FD17B1E91CC463DD07062286A94526853A
:101A9000A52CFD576308F502294535A097170000CE
:101AA000938787516314F4008044C9B797170000E7
:101AB0009387874CE31CF4FAC0444DBFA28526856A
:101AC000112655D97D55F2406244D2444249B2496B
:101AD000224A056182801CC4050963D70700184C9F
:101AE00063CAE700638845011C401387170018C0CC
:101AF0008CA361B722862685012CE31035F9D9B76E
:101B00001C401387170018C0294798A371B7938703
:101B10004181AA85884315B7AA87850703C7F7FFC0
:101B20006DFF3385A7407D15828079714AD04ECEF6
:101B300006D622D426D2AA892E899304190003C47A
:101B4000F4FF3A8536C632C42EC23AC02D272295FC
:101B50001C3102479245A18B2246B246D1E393073E
:101B6000D0026311F4089C20054393042900E5C6C4
:101B700041476390E60213070003639CE7009C2043
:101B80001307800593F7F70D6392E70C9C30C1466D
:101B90008904B70800806314030093C8F8FF33FF7B
:101BA000D80201480145A54FE54EFD5233DED8026B
:101BB000138707FD63E3EF04BA8763DED704630D81
:101BC00058007D58636AAE006314AE006346FF00A0
:101BD00005483385A6023E95850483C7F4FFC9BF37
:101BE0002689A1BF9307B0026305F400A2870143D1
:101BF000BDBF9C2093042900DDBF1387F7FB63E57D
:101C0000EE00938797FC55BF1387F7F963E5EE0065
:101C1000938797FA5DB7FD57631FF800930720027B
:101C200023A0F900468519EEB2502254925402596D
:101C3000F24945618280630403003305A0406DD6FC
:101C4000630408009385F4FF0CC2F9BF93070003F7
:101C5000A9F2A1463DBF13070003E382E7F2A946BC
:101C60000DBF938741819C43B286985309E717E7DC
:101C7000FF1F130727412E86AA853E857DB5397142
:101C800022DC26DA4AD8AA8432892E84130650022E
:101C9000971500009385C52B280006DE7531930645
:101CA000E9FF93072002014763FED70023000400E9
:101CB00001442285F2506254D254425921618280FB
:101CC0003287BE84B3F724030C1813061700B3063B
:101CD000C400AE9783C787FDA38FF6FEB3D7240356
:101CE000E3F024FF238006008147B306E4003306B7
:101CF000F740E3D0C7FC3306F40088220C228507A6
:101D000008A28CA2FD16E5B7011122CC26CA4AC84A
:101D100006CE4EC6AA842E89328401C51C4D91E39D
:101D2000ED2697170000938727276317F406C04016
:101D30001C4C1CC45E24A18BC1C31C48B5CF1C48DD
:101D400008409379F90F1379F90F1D8D5C486346AC
:101D5000F500A2852685692C25E51C440505FD179F
:101D60001CC41C401387170018C0238037015C482F
:101D70006388A7005E24858B81CBA9476316F90091
:101D8000A2852685B5240DEDF24062444A85D244F1
:101D90004249B24905618280971700009387C721A5
:101DA0006314F400804469B7971700009387C71C39
:101DB000E310F4F8C044ADBFA2852685212041D1AF
:101DC0007D59D9B741119387418126C2844322C4EA
:101DD0004AC006C62A892E8489C49C4C99E326856C
:101DE0002D26971700009387271B631BF402C04022
:101DF0000317C40093170701C18393F68700ADEA68
:101E000093F6070195EEA5472320F9001367070411
:101E10005AA47D55B2402244924402494101828035
:101E200097170000938747196314F4008044C9B7DB
:101E30009717000093874714E31CF4FAC0444DBF82
:101E4000918B9DC34C5889C9930744046384F50062
:101E50004A859123232A04025E242322040093F757
:101E6000B7FD5EA41C481CC05E2493E787005EA4F7
:101E70001C4899EB5E241307002093F7072863851D
:101E8000E700A2854A85B9215E2413F717001DC318
:101E90005C4823240400B307F0401CCC1C480145D7
:101EA000B5FB8317C40013F707082DD793E7070482
:101EB0005EA485B7898B014791E3584818C4F9BFE0
:101EC000DE25011122CC26CA06CE4AC84EC613F71B
:101ED0008700AA842E8479EBD841634DE000B84195
:101EE000634AE0000145F2406244D2444249B249AB
:101EF0000561828058547DD703A904009396370169
:101F000023A0040063DB060670485E24918B99C70A
:101F10005C401D8E5C5899C33C401D8E5C540C5037
:101F2000814626858297FD575A24631DF50094400B
:101F3000F54763E8D706B70740208507B3D7D70032
:101F4000858BA5C31C48232204001CC093173701AE
:101F500063D80700FD576314F5009C4091E368C8FF
:101F60004C5823A02401BDDD930744046384F5008D
:101F700026851521232A0402B5B70C500146854653
:101F800026850297FD572A86E311F5F89C40B5DFB8
:101F900075476385E70059476393E70423A024014D
:101FA00091B7136707045AA47D5535BF83A905016E
:101FB000E38A09F203A905008D8B23A035013309BB
:101FC0003941014791E3D84918C4E35D20F11C541D
:101FD0000C50CA864E86268582976347A0005E24F1
:101FE00093E707045EA4C9B7AA993309A940F1BFD2
:101FF0009C49B9CF011122CC06CE2A8411C51C4DB3
:1020000081E72EC61922B245971700009387C7F8BB
:10201000639BF5004C408397C50095C722856244B9
:10202000F240056171BD971700009387E7F863944C
:10203000F5000C44CDB7971700009387E7F3E39CB6
:10204000F5FC4C44C9BFF240624401450561828001
:1020500001458280411122C406C62A844EA572A57C
:102060002320050023220500232405002322050642
:1020700023280500232A0500232C0500214681453D
:102080001305C505EFE0CF8D97170000938707B5BF
:102090005CD097170000938727B71CD497170000D0
:1020A000938707BB5CD497170000938767BD00D068
:1020B0001CD8B240224441018280970500009385DC
:1020C00065F3A9A2411126C2130680069384F5FF89
:1020D000B384C4024AC02E8922C406C6938544072D
:1020E000B92E2A8401CD23200500232225013105A4
:1020F00008C4138684068145EFE08F862285B240AE
:10210000224492440249410182801C4DADE34111B9
:1021100006C622C497070000938767FA1CD59387E9
:10212000C1819C4323240504232605042328050498
:102130006314F50085471CCD2A841D2848C02285DC
:10214000052808C422852D2048C4484001469145F1
:10215000113708440546A545F53D48440946C9459B
:10216000D53D85471CCCB24022444101828082800B
:1021700041119387C18126C284434AC006C69C4C44
:1021800022C42A8999E326854937938484048044AC
:10219000DC40FD1763D607009C40B9CF8440C5BF23
:1021A0000317C40039E7C1778507232204062320DB
:1021B000040023220400232404005CC42328040018
:1021C000232A0400232C0400214681451305C4055D
:1021D000EFD01FF9232A0402232C04022324040431
:1021E000232604042285B24022449244024941013C
:1021F00082801304840671BF91454A85E13588C009
:1022000051FDB1472320F9000144E9BF797122D47F
:102210004AD052CC56CA5AC85EC606D626D24ECE30
:102220002A8AAE8A130485040149054BFD5B09EC3B
:10223000B25022544A8592540259F249624AD24A13
:10224000424BB24B45618280044483294400FD190E
:1022500063D409000040E1BFDE24637BFB00839769
:10226000E40063877701A6855285829A3369A900C5
:1022700093848406E9BF0325C50E82801971A6DA0E
:10228000AE848395E500A2DC86DE328463DB050044
:10229000DE2423A0060093F7070885E79307004094
:1022A0001DA0300836C6EF001025B246E34205FEF9
:1022B0007247BD67F98F7977BA9793B717009CC2B9
:1022C000F1BF930700041CC0F6506654D654014574
:1022D00009618280DE25011122CC06CE26CA4AC8B9
:1022E000898B2E8489CF930774041CC01CC8854732
:1022F0005CC8F2406244D244424905618280740065
:102300003000AA84A53FA2452A8926850D2A19E90D
:102310008317C40013F7072069FFF19B93E7270099
:102320005EA4D1B797070000938767D99CD45E2439
:1023300008C008C893E707085EA4A2475CC8B24774
:1023400081CF8315E4002685EF00901D11C55E2422
:10235000F19B93E717005EA45E243369F90023160E
:10236000240141BF91ED41116C00014501CA79552D
:1023700091C61C229CC108223335A00041018280F5
:10238000014509CA795599C61C229CC108223335DA
:10239000A00082808280DDC183A7C5FF411122C4D5
:1023A00006C626C21384C5FF63D307003E94AA84E1
:1023B000EF00D01D938701859C4381EF2322040009
:1023C00023A881842244B2402685924441016F00B3
:1023D000101C637EF40014403307D4006396E700BA
:1023E0009843DC43369718C05CC0D9BFBA87D8433E
:1023F00019C3E37DE4FE94433386D700631F860050
:102400001040B29694C33386D700E31DC7FA104339
:102410005843B29694C3D8C375B76375C400B14727
:102420009CC04DB71040B306C4006316D7001443D8
:102430005843B29614C058C0C0C369B78280011116
:1024400026CA93843500F19806CE22CC4AC84EC6DF
:10245000A104B14763F3F404B14463E2B4042A89EC
:10246000EF00D0129387018598433A8439E093872F
:1024700041859C4391E781454A85152F23AAA18474
:10248000A6854A852D27FD5963193507B1472320B5
:10249000F9004A85EF00B00F29A0E3D004FCB14752
:1024A0001CC10145F2406244D2444249B24905612F
:1024B00082801C40858F63CF0702AD4663F6F6002D
:1024C0001CC03E9404C031A05C406313870223A863
:1024D000F1844A85EF00B00B1305B4009307440064
:1024E00061993307F5405DDF3A94898F1CC05DBF69
:1024F0005CC3C5B72287404095BF1304350071986F
:10250000E30285FCB305A4404A855525E31C35FB51
:10251000B5BF1C46FD171CC663DA0700184E63C51D
:10252000E700A9476394F5006FF00FFE1C422E856B
:102530001387170018C28CA38280011122CC26CAEF
:102540004AC84EC652C406CE2A89AE893284B30424
:10255000D6007D5A63149400014501A80C204E86D4
:102560004A85453F0504E31745FFF2406244D244E3
:102570004249B249224A05618280357122CD26CB7B
:102580004AC94EC706CF52C556C35AC1DEDEE2DC89
:10259000E6DAAA89AE843289368409C51C4D99E3EE
:1025A000EFF0BFB6971700009387079F6397F40C6F
:1025B00083A44900DE24A18BFDC39C48EDC393078F
:1025C0000002A304F1029307000302D22305F102E3
:1025D00022C6930B5002971A0000938AEAA0054C7A
:1025E000294B4A841C2099C3639E770DB30C244168
:1025F000638D0C00E6864A86A6854E853D3FFD57D5
:10260000630FF51C9256E69636D21C206389071C90
:10261000FD571309140002C802CE3ECA02CCA3091A
:10262000010482D48345090015465685A127130469
:102630001900C24751E913F7070109C71307000240
:10264000A309E10413F7870009C71307B002A30920
:10265000E104834609001307A002638FE606F247F0
:102660004A8481462546182093051400130707FD68
:102670006377E60AB5CA3ECE85A897170000938710
:10268000A7936395F40083A489002DB797170000E2
:102690009387878EE390F4F283A4C90021BFA685B7
:1026A0004E85EFF02FF201DD7D55FA406A44DA44A1
:1026B0004A49BA492A4A9A4A0A4BF65B665CD65C92
:1026C0000D618280050439BF330555413315AC00D7
:1026D000C98F3EC82289B9B73247930647001843CD
:1026E00036C6634707023ACE18209307E002631DFF
:1026F000F70418309307A002631BF702B2470904DE
:10270000138747009C433AC663C107023ECA2DA8FF
:102710003307E04093E727003ACE3EC8F1B7B387CE
:10272000670385462E84BA973DBFFD57C5B705049C
:1027300002CA8146814725461820930514001307D5
:1027400007FD6374E606F9F20C200D46171500002C
:102750001305058A052511CD971700009387478932
:102760001D8D93070004B397A700424505045D8DB6
:102770002AC80C201946171500001305A587130950
:1027800014002304B102FD2335C197E7FFFF9387AF
:10279000678795E74247B2471377071009CF91073C
:1027A0003EC69257D2973ED22DBDB387670385466A
:1027B0002E84BA9751B79D07E19BA107D5B7780042
:1027C000970600009386A6D726860C084E859700AC
:1027D0000000E7000000FD572A8AE314F5FCDE2420
:1027E00093F70704E39207EC1255C1B578009706FA
:1027F00000009386C6D426860C084E85012AE1BFC8
:10280000797156CA9C49BA8A984522D426D24ECEAE
:1028100052CC06D64AD05AC85EC6AA892E84B28443
:10282000368A63D3E700BA879CC00347340419C3D0
:1028300085079CC01C4093F7070281C79C4089070D
:102840009CC00329040013796900631A0900130B63
:102850009401FD5B5C449840998F634CF9041C40E3
:102860008346340493F70702B336D000A5EB130672
:102870003404D2854E85829AFD576303F5041C40CB
:1028800011469840998B544481446397C700B384A0
:10289000E64063D3040081441C4418486354F700A5
:1028A000998FBE94014969047D5B639824050145B5
:1028B00009A885465A86D2854E85829A631E75017F
:1028C0007D55B250225492540259F249624AD24A7A
:1028D000424BB24B456182800509ADBF3307D4003E
:1028E00013060003A301C70403475404938716008B
:1028F000A2978906A381E7049DBF85462286D285DB
:102900004E85829AE30E65FB050945B7797122D49D
:1029100026D24AD04ECE06D652CC56CA5AC8B6890E
:10292000942D930790063289AA842E841386350449
:10293000638DF60263E2D706930780056386F61877
:1029400063EDD700638E062093073004638EF60A8A
:10295000930A24042301D404C9A093073006638595
:10296000F60A93074006E395F6FE1C40084393F6EB
:10297000070893054500C5C61C410CC363D8070072
:102980001307D002B307F040A301E4049706000048
:102990009386C666294765A8930700076382F616E3
:1029A00063E5D7029307E0066389F6189307F006FC
:1029B000E390F6FA0C401C4313F805081385470012
:1029C0006307080608C39C4385A893075007E38361
:1029D000F6FE930780076389F61293073007E399A1
:1029E000F6F61C43D04181459386470014C383AA61
:1029F00007005685412601C53305554148C05C4056
:102A00001CC8A301040461A81C43930A24049386F0
:102A100047009C4314C32301F4048547D5B793F6BC
:102A200007041C410CC3B9DAC207C18781BF93F503
:102A3000050408C3C9D99E231307F0066387E60E71
:102A4000970600009386865B2947A30104044C4047
:102A50000CC463C5050008406D9908C099E3B28AAB
:102A600089CDB28AB3F5E702FD1AB6958C21238091
:102A7000BA00B3D5E70263F0E70CA147631EF70085
:102A80001C40858B91CB58401C4863C7E7009307D7
:102A90000003A38FFAFEFD1A3306564110C84E8775
:102AA000CA867000A2852685EFF09FD57D5A631DEA
:102AB000450B7D55B250225492540259F249624A54
:102AC000D24A424B45618280A382D504970600001A
:102AD0009386C6520C40084313F805081C411105A3
:102AE000630D080208C313F7150001C793E505023B
:102AF0000CC04147B9FB0C4093F5F5FD0CC0B1B7D4
:102B00009C4193E707029CC193078007A302F4044A
:102B1000970600009386C64F75BF13F8050408C3D7
:102B2000E30308FCC207C1837DBF970600009386BC
:102B3000E64C214719BFAE8735B794411C43CC49B9
:102B400013F80608138547006306080008C39C4372
:102B50008CC339A008C393F606049C43F5DA8EA310
:102B600023280400B28A25BF14485686CA852685C4
:102B70008299E30045F51C40898B8DE7B2474844B4
:102B8000E35AF5F23E853DB785465686CA852685C9
:102B90008299E30065F3050A5C443247998FE34567
:102BA000FAFEE9BF014A930A94017D5BF5B7411132
:102BB00022C42A842E8523AC015C06C6EFE0BFD177
:102BC000FD576317F5009387815D9C4391C31CC03B
:102BD000B240224441018280411122C42E84839557
:102BE000E50006C67522634905007C48AA977CC8A3
:102BF000B2402244410182805E247D777D17F98FA7
:102C00005EA4FDB7DE25011122CC26CA4AC84EC6F5
:102C100006CE93F70710AA842E843289B68991C70D
:102C20008395E5008946014605225E247D777D1760
:102C3000F98F5EA48315E4006244F240CE864A8692
:102C4000B24942492685D244056199A8411122C45E
:102C50002E848395E50006C6C528FD575A24631ABD
:102C6000F500FD77FD17F98F5EA4B24022444101C3
:102C700082808567D98F5EA468C8C5BF8395E5004B
:102C8000B9A089CD9307F00F63F7C7009307A00899
:102C90001CC17D55828090A10545828001458280BE
:102CA000411122C42A842E85B285368623AC015C6C
:102CB00006C6EFE0BFBEFD576317F5009387815D41
:102CC0009C4391C31CC0B240224441018280411107
:102CD00022C42A842E8523AC015C06C6C520FD577C
:102CE0006317F5009387815D9C4391C31CC0B2407C
:102CF000224441018280411122C42A842E85B2855A
:102D000023AC015C06C6C920FD576317F500938705
:102D1000815D9C4391C31CC0B2402244410182802A
:102D2000411122C42A842E8523AC015C06C65D2095
:102D3000FD576317F5009387815D9C4391C31CC0C9
:102D4000B240224441018280411122C42A842E854E
:102D5000B285368623AC015C06C65920FD57631741
:102D6000F5009387815D9C4391C31CC0B24022440F
:102D70004101828093F5F50F2A966314C500014541
:102D800082801C21E38EB7FE0505C5BF828082804C
:102D9000411122C42A842E85B285368623AC015C7B
:102DA00006C6A920FD576317F5009387815D9C43F4
:102DB00091C31CC0B2402244410182809307800528
:102DC00023ACF15C7D5582809307800523ACF15CD8
:102DD0007D5582809307800523ACF15C014582809C
:102DE0009307800523ACF15C7D55828093078005B5
:102DF00023ACF15C7D558280260A00003C0900006E
:102E0000C40700009C090000C4070000CA080000B5
:102E1000FA070000C4070000140900002A09000096
:102E2000200A0000D40800000902430002010080CB
:102E3000320904000001020201000524001001050E
:102E40002401000104240202052406000107058173
:102E50000340000109040100020A00000007050206
:102E6000024000000705830240000000120110012B
:102E700002000040861A0CFE010001020001000061
:102E80000E037700630068002E0063006E000000F0
:102E900016035500530042002000530065007200E5
:102EA000690061006C000000160330003100320040
:102EB0003300340035003600370038003900000098
:102EC00053797374656D436C6B3A25640D0A000089
:102ED0004368697049443A253038780D0A0000008B
:102EE0000D0A207374617274206C6F6F700D000096
:102EF000008040C020A060E0109050D030B070F052
:102F0000088848C8048444C424A464E4149454D4B1
:102F100034B474F40C8C4CCC068646C626A666E601
:102F2000169656D636B676F60E8E4ECE078747C71D
:102F300027A767E7179757D737B777F70F8F4FCF81
:102F40002FAF6FEF1F9F5FDF3FBF7FFF3031323307
:102F50003435363738396162636465666768696A33
:102F60006B6C6D6E6F707172737475767778797A39
:102F70000000000000000000000000000000000051
:102F80000000000000000000000000000000000041
:102F90000000000000000000000000000000000031
:102FA0000000000000000000000000000000000021
:102FB0000000000000000000000000000000000011
:102FC0000000000000000000000000000000000001
:102FD0000000000043000000504F5349580000001B
:102FE0002E000000232D302B20000000686C4C00C8
:102FF0006566674546470000303132333435363731
:1030000038394142434445460000000030313233F4
:103010003435363738396162636465660000000014
:103020000020202020202020202028282828282098
:103030002020202020202020202020202020202090
:1030400020881010101010101010101010101010F8
:1030500010040404040404040404041010101010E8
:1030600010104141414141410101010101010101B2
:103070000101010101010101010101011010101004
:103080001010424242424242020202020202020284
:1030900002020202020202020202020210101010D8
:1030A0002000000000000000000000000000000000
:1030B0000000000000000000000000000000000010
:1030C0000000000000000000000000000000000000
:1030D00000000000000000000000000000000000F0
:1030E00000000000000000000000000000000000E0
:1030F00000000000000000000000000000000000D0
:1031000000000000000000000000000000000000BF
:1031100000000000000000000000000000000000AF
:0431200000000000AB
:103124000102030405060708010203040506070853
:103134000102030405060708010203040506070843
:1031440000000000942F0000B42F0000742F000032
:10315400000000000000000000000000000000006B
:10316400000000000000000000000000000000005B
:10317400000000000000000000000000000000004B
:10318400000000000000000000000000000000003B
:10319400000000000000000000000000000000002B
:1031A40043000000000000000000000000000000D8
:1031B400000000000000000000000000000000000B
:1031C40043000000000000000000000000000000B8
:1031D40000000000000000000000000000000000EB
:1031E4004300000000000000000000000000000098
:1031F40000000000000000000000000000000000CB
:103204004300000000000000000000000000000077
:1032140000000000000000000000000000000000AA
:103224004300000000000000000000000000000057
:10323400000000000000000000000000000000008A
:103244004300000000000000000000000000000037
:10325400000000000000000000000000000000006A
:103264004300000000000000000000000000000017
:10327400000000000000000000000000000000004A
:10328400822C0000642300000000000020300000B5
:10329400E02F000008300000083000000830000073
:1032A400083000000830000008300000083000003A
:1032B4000830000008300000FFFFFFFFFFFFFFFFA2
:1032C400FFFFFFFFFFFF0000010041534349490096
:1032D40000000000000000000000000000000000EA
:1032E4000000000000000000000041534349490071
:1032F40000000000000000000000000000000000CA
:1033040000000000000000000000000000000000B9
:10331400006CDC024444444444444444444444442F
:10332400CC0F00202000002004030904200000200A
:00000001FF
