:040000006F00104439
:100004000000000000000000C80A0000CA0A000046
:10001400000000003E0C0000000000000000000092
:100024003E0C00003E0C0000000000000000000038
:100034003E0C0000000000003E0C00000000000028
:100044003E0C00003E0C00003E0C000000000000CE
:100054003E0C00003E0C00003E0C00003E0C000074
:100064003E0C00003E0C00003E0C00003E0C000064
:100074003E0C00003E0C00003E0C00003E0C000054
:100084003E0C00003E0C00003E0C00003E0C000044
:100094003E0C00003E0C00003E0C00003E0C000034
:1000A4003E0C00003E0C00003E0C00003E0C000024
:1000B4003E0C0000640300003E0C00003E0C0000F7
:1000C4003E0C00003E0C00003E0C00003E0C000004
:1000D4003E0C00003E0C00003E0C0000000000003E
:1000E400000000000000000000000000000000000C
:0C00F40000000000000000000000000000
:10010000397101436EC619A0397141536AC866CA74
:1001100062CC5ECE19A0397101535AD056D252D456
:100120004ED64AD826DA22DC06DE330161408282CE
:1001300041114AC026C222C406C68282B24D410184
:10014000024D924C224CB24B4101024B924A224A40
:10015000B2494101024992442244B24041018280A5
:100160003D432A876373C3029377F700BDEFADE584
:10017000937606FF3D8ABA960CC34CC30CC74CC796
:100180004107E36BD7FE11E28280B306C3408A06C3
:100190009702000096966780A6002307B700A30683
:1001A000B7002306B700A305B7002305B700A304D3
:1001B000B7002304B700A303B7002303B700A302CB
:1001C000B7002302B700A301B7002301B700A300C3
:1001D000B7002300B700828093F5F50F9396850052
:1001E000D58D93960501D58D61B79396270097021B
:1001F000000096968682E78086FA9680C1171D8F4A
:100200003E96E374C3F8A5B7EFF29FF28545054526
:10021000EF00D05085450565EF00704E25BFB7371C
:100220000240130700042386E74013078004A386D7
:10023000E7401387818523A8E7401387818923AA94
:10024000E740370700201307871923ACE7401387DF
:10025000818D23AEE74009472391E742239507426A
:1002600023920742239607422393E7422397E742CC
:100270009387418223800700A38007002381070022
:10028000A381070023820700A382070023830700BE
:10029000A38307008280EFF2BFE941118545414504
:1002A00002C202C402C6EF007047C1673EC24C00E2
:1002B0009147371501403EC6EF009021B707020075
:1002C0003EC24C0093078004371501403EC6EF0044
:1002D0003020410141B5EFF2BFE541112EC629CDD5
:1002E0005D3F370701401C4FB24593F707F3B1E17B
:1002F00093E78708B73402401CCF238004400537BA
:1003000093079002A38104402380F440FD57238388
:10031000F440930710F8A380F4409D472381F440F4
:100320000967B7E700E01384044023A2E710410106
:1003300015B593E7C70C7DBF370701401C4F373415
:100340000240294593F707F71CCF99472300F44053
:10035000EF00904EB7E700E023000440096723A2B6
:10036000E718F1B7011122CE3734024026CC4ACA31
:100370004EC852C656C41304044078207C3013770C
:10038000F70F937627006386065E93F7F70F13F750
:100390000703930600026300D70C93060003630370
:1003A000D7226312071613F7F703630E071A89475C
:1003B000631BF7143E34138681D193C707083EB4FC
:1003C000184483D60184B705002042078606B296FA
:1003D00041839AA2930600049385851963EDE61A7A
:1003E000631D071A03D70184B73602403D4605074F
:1003F000420741832390E18403D70184938606401A
:100400001A072E9798CE03D701846375E6002390D0
:1004100001848CCE83D7E1838507C207C183239FE4
:10042000F18283D721843547637FF70C3737024049
:100430008357A742C207C183CD9BC207C18323153F
:10044000F7428357A74293E787002315F7420547F2
:10045000238EE1824DA893F7F7039306100263847D
:10046000D70C930630026380D70E639EE70893870C
:1004700001839E2393840183C207C18381E793078D
:1004800000083EB083C7218393F70706ADEF83C70B
:10049000C182154793F7F70F638CE70419476394FC
:1004A000E7069E201307F003130400046365F700BA
:1004B0008220420441801389818383290900228696
:1004C000CE8513858185EF0010499E20A2992320B7
:1004D0003901818FC207C1839EA0B73702402390A4
:1004E000874203D72742134707042391E74221A8F5
:1004F000373702408347374083C6018293F70708A6
:10050000D58FA301F740B737024009472383E7405F
:10051000938707407244E2445249C249324AA24A90
:100520000561730020307E3093C707047EB07E30B3
:10053000C207C183F19B93E727007EB09387418276
:10054000A3800700C9B77E3493C707047EB47E3406
:10055000C207C183F19B93E727007EB49387418252
:10056000A38107004DB7184493F70704C9DF03C7F9
:100570002183938701831377070619C3239007000C
:100580009E23C207C183C1F3B737024023900742BD
:100590001307000499BF130700048146138581D314
:1005A00003D601843388A6001A062E9636961022AA
:1005B000850693F6F60F2300C800E3E3E6FE2382E8
:1005C000E1840DB59307A00C3EB0938681859C22F3
:1005D000138621831CA29C32EE221387C1821CA3A6
:1005E00003D82600938701838EA3938541832390AC
:1005F000050103D846009385E182239005010C2272
:10060000138901839389218393F5050613868185D8
:10061000938741839386E182A5C983C7090093F735
:100620000702B1CB00230114133444007D14835717
:1006300009001307F0031374F40F930400046366B6
:10064000F70083540900C204C180138A8183832A7E
:100650000A00268613858185D685D694EF00B02FB3
:1006600023209A009307F00F631AF410B737024063
:100670001307F00C9DBD03C4090019801344140036
:1006800005883304804065B71823AD451377F70F0D
:10069000E3EEE5FC89650A079385053C2E97184330
:1006A00002879A238946218393848183630ED7042A
:1006B0000D466306C7068547631EF70689671387DD
:1006C000474383C7474398C001440357090063F475
:1006D000E7002310F900835709001307F003130AFA
:1006E00000046367F700035A0900420A135A0A011B
:1006F00083AA0400528613858185D685569AEF0019
:10070000902523A04401B9BF09671307073F3C3375
:1007100098C03823A207BA97C207C18375B79E2332
:10072000054693F7F70F6381C70289CB6385D7022C
:10073000638AE70281471304F00F41BF1387818169
:1007400098C083C7818149B789671387874498C058
:1007500083C7874495BF89671387874598C083C738
:1007600087459DB789671387074798C083C70747A1
:10077000A1BF9E2393F7F70F2380F18283C709005F
:1007800003570900E207E18763D5071C93070004BC
:1007900063E6E70083570900C207C18303570900D6
:1007A0001D8F420741832310E90037370240231091
:1007B000F742930700042311F742B1B383C71182B4
:1007C0001CA2035709008547E3FAE7FA2310F90052
:1007D00075B79E2393F7F70FA380F1820547238116
:1007E000E18269BF03C709007D8B11EF9E23054796
:1007F00093F7F70FE394E7F8938731829823137701
:10080000E70F98A3A5BF03C7090009467D8BE31F27
:10081000C7E49E2393F7F70FE39A07E49622B737CE
:1008200002401306100893F6F60F9387074063867D
:10083000C608130630086387C608E399E6E22395E5
:1008400007022DBF03C709007D8B05E79E230547DF
:1008500093F7F70FE39CE7E0896783C7773F93F748
:100860000702E38507E09387318298231367170017
:1008700049BF03C6090009477D8AE319E6DE9E23C6
:1008800093F7F70FE39407DE9A22B73702409306F7
:1008900010081377F70F93870740630DD70093066F
:1008A0003008630ED700E313C7DCBA371367C700FD
:1008B000BAB7E9B5FA3313673700FAB3C1B5FA37F7
:1008C00013673700FAB75DBD23000600DDBD83C79F
:1008D000090023100600FD8B85E383C731820144A4
:1008E000858B99C389471CA2035709008947E3FBFD
:1008F000E7D62310F900BDB383C509008947130467
:10090000F00FFD89E392F5FE9A22B7370240930675
:1009100010081377F70F93870740630ED7009306ED
:1009200030086304D702E311B7FCBE373147B18BFF
:10093000639BE70039A0FE330D4701448D8BE3959F
:10094000E7FA85471CA2014445B7FE370D478D8B5A
:10095000C5B74207B737024041839387074019E77D
:100960002390070213070004BAB371BE13070008EF
:10097000E5BF9377170099CFA3800182238001827E
:10098000A381018223810182A301040049388547A4
:100990007CA049B69377470095C791477CA029452D
:1009A000EF008069583093873182118B19C79823E3
:1009B0001367270098A39C23B1BE98231377D70F02
:1009C00098A389BE78A0B9B6EFF2EFF4411185453E
:1009D000114502C202C402C69123854541453D2B03
:1009E0000544C14491694C00371501404EC226C6EA
:1009F00022C4F92CA1674C0037150140371901407A
:100A00003EC226C622C4E924930700104C001305F9
:100A100009803EC226C622C4652C930700204C00E4
:100A2000130509803EC226C622C45D24A1474C009E
:100A3000130509803EC226C622C4592C4C0013055A
:100A400009804EC226C622C46124930700084C00C8
:100A5000130509803EC226C622C49D2C93070004BC
:100A60004C00130509803EC226C622C495244101CC
:100A70006FF0AFEDEFF2CFEB854511454521854590
:100A8000370502005D298545094545298545054508
:100A9000BD2101456FF00FEC23900184239F01825B
:100AA00023910184938681D1814741461397170092
:100AB0003697231007008507E39AC7FE8280EFF27E
:100AC0002FE719376FF00FE901A0B707EFBE37E73F
:100AD00000E0938707083CC701A0EFF26FE54111E2
:100AE0008545114502C202C402C60D2937150140D1
:100AF000854741474C00130505803EC23AC63EC4B7
:100B0000C12A41016FF00FE5EFF2EFE005459526B0
:100B1000F169FD20ED29138509206923370900209B
:100B200083250908B724000013858448EF00C06DB1
:100B3000592A37240000AA8513058449EF00C06CA8
:100B4000153FEFF06FEC812EAA850545EFF0AFF869
:100B5000A137B537B7E700E009673725000023A2C2
:100B6000E7101305854AEF00607B054519264928E3
:100B70007929138509203D23832509081385844895
:100B8000814459258922AA8513058449B52D372525
:100B900000001305854BEF00607837140140353FA6
:100BA000130404801305401FD92199C401468144D0
:100BB000854522856D24FDB705468544D5BFB71709
:100BC00002409843B70600F99386F6F513671700BD
:100BD00098C3D84313670705D8C3D843758FD8C3C4
:100BE000372702401443F19A14C3144393E62600B6
:100BF00014C3D8431377F7F0D8C3D843D8C382803F
:100C0000B7160240DC42918313F7F700B7070020C4
:100C100093870700BA979C23D4423777DC0293F777
:100C2000F70F130707C093F606083356F70099E24B
:100C30003356F702B707002023A0C708828001A01F
:100C400097010020938101C4174100201301813BCB
:100C5000172500001305859197F5FF1F9385853AA9
:100C60001386018263FAC5008322050023A0550084
:100C700011059105E3EAC5FE138501829385C1D76D
:100C80006377B500232005001105E36DB5FEFD4235
:100C9000739002BC8D4273904280930280087390DF
:100CA000023097F2FFFF9382223693E23200739074
:100CB0005230EFF0DFF097020000938222E573904C
:100CC000123473002030B7F7FF1F03A547708280EE
:100CD0009845937707011378F70081C7DC413368A3
:100CE000F8009441814713F6F60F39C21C410146C2
:100CF000854E3D4F930F800293028004214EB3989E
:100D0000CE00B3F516016391B80213132600B31594
:100D10006F0093C5F5FFED8F33136800B367F300E1
:100D20006315F70F232A15010506E31AC6FD1CC13A
:100D30004166130606F0758E49C237F6FF1F03267B
:100D400046701376060F7DE2371601409305068044
:100D50006312B50C83A74180A145854E3D4F930F8B
:100D6000800293028004414E3393BE0033F6660046
:100D70006312C302139625000116B318CF0093C85F
:100D8000F8FFB3F7F8003316C800D18F6312F70BE2
:100D9000232A65008505E399C5FD5CC137F6FF1F71
:100DA000032646701376060F09EA371601409305AD
:100DB00006806314B50823A2F180C16763E6F604D8
:100DC000504D8147054E3D4F930F800293028004A2
:100DD000A14E93850701B315BE00B3F8B600639129
:100DE00015039398270033131F011343F3FF337642
:100DF000C300B318180133E6C800631CF7054CC9DB
:100E00008507E398D7FD50CD8280E31F57F0232854
:100E1000150119BF930506C06315B50083A781802E
:100E200025BFE31BC5F283A7C1803DB75C412DB749
:100E3000E31257F623286500B1BF930506C063157A
:100E4000B50023A4F18095BFE319C5F623A6F18070
:100E5000ADB7E31757FAB315FE000CD155B701CA69
:100E600093970501C1831CC9C1810CD182804CC9F3
:100E7000828023A4A1848280377700401C4393F7AB
:100E8000F7F95D8D08C38280B7770040DC437D8D24
:100E90003335A0008280EFF2AFA9952A854537054A
:100EA0000010612813050006C13F29457122114534
:100EB000E13F2A840145C937333580006FF08FA99F
:100EC000B777DC02938707C01CC13716024058422F
:100ED00011839376F7003707002013070701369731
:100EE0001423504293F6F60F1376060833D7D70033
:100EF00019E233D7D70258C118C558C5828099C5A1
:100F0000371702405C4B5D8D48CB8280B71702409B
:100F1000D84B1345F5FF798DC8CB828099C537171B
:100F200002401C4F5D8D08CF8280B7170240984F5A
:100F30001345F5FF798D88CF828099C53717024018
:100F40005C4F5D8D48CF8280B7170240D84F134564
:100F5000F5FF798DC8CF8280EFF28F9D1629F57746
:100F6000FD17F58FF621DA250111D58F1EA956251B
:100F7000FD779387379FF58FD6212A842EC6D58F8C
:100F80009625D58FB625D58F5EA55E29C207C1836C
:100F900093F7F7CFD98F5EA908081D37B7470140EF
:100FA00093870780B245631EF402F2476547B38713
:100FB000E7029841930640060A07B3D7E70233D702
:100FC000D702B3F7D7021207920793872703B3D745
:100FD000D702BD8BD98FC207C1831EA405616FF0F4
:100FE0006F97E247E1B791C55E250967D98F5EA586
:100FF00082805A25F977FD17F98FD5BF93F5F51F34
:101000004EA182800A216D8D3335A0008280B70702
:10101000002083A7070837177A0013070720B3D7E4
:10102000E70293F7F70F2387F1841307803EB38716
:10103000E7022396F1848280B7F700E0D843814627
:10104000799BD8C303C7E1843306A70290CBD4CBE6
:1010500098431367070198C398431367170298C30F
:10106000D843058B75DF9843799B98C38280B7F787
:1010700000E0D8438146799BD8C303D7C1843306A7
:10108000A70290CBD4CB98431367070198C398432A
:101090001367170298C3D843058B75DF9843799B74
:1010A00098C38280EFF2CF882A84116501118545AB
:1010B0002105AD35930700403EC2371501408547F5
:1010C0003EC44C00E147130505C03EC6113122C89D
:1010D00037440140B70708000C08130504803ECCD4
:1010E00002CA231E01008D3D854513050480E53DA0
:1010F00005616FF02F86EFF20F82B7440140AE8991
:101100003289014493840480634524014A856FF049
:10111000CF83930500042685F53565DDB387890007
:101120008385070026850504C205C181C13DE9BF4D
:10113000138701811C439386C1D73E95636BD5000D
:10114000B75600209386068063E5A60008C33E8557
:101150008280FD57EDBFB3C7A5008D8B3307C50057
:1011600081E78D4763EDC700AA87637EE508942178
:1011700085078505A38FD7FEE3EBE7FE8280937694
:101180003500AA8789CA942185078505A38FD7FED4
:1011900093F63700C5BF9376C7FF138606FE63F04C
:1011A000C70683A3050083A2450083AF850003AF74
:1011B000C50083AE050103AE450103A3850183A8E5
:1011C000C5019385450223A0770003A8C5FF23A28C
:1011D000570023A4F70123A6E70123A8D70123AAD8
:1011E000C70123AC670023AE17019387470223AEE4
:1011F00007FF75B790419107910523AEC7FEE3EB5A
:10120000D7FEE3E6E7F6828039713EDA2ED232D499
:1012100036D63AD842DC46DE9387418122CC8043E1
:1012200026CA06CEAA8409C41C4C99E32285ED295E
:101230000C4454102686228536C6EF007012F24008
:101240006244D24421618280011126CA4AC806CE76
:1012500022CC4EC652C4AA842E8901C51C4D91E3EE
:10126000E1219C4C804499E326857D299717000055
:1012700093870728631BF402C0405E24A18BB1C78B
:101280001C48A1C7FD59294A1C4483450900FD1784
:10129000B1E91CC463DD07062286A94526856120C5
:1012A000FD576308F502294535A09717000093877D
:1012B00027266314F4008044C9B79717000093876A
:1012C0002721E31CF4FAC0444DBFA2852685112ACC
:1012D00055D97D55F2406244D2444249B249224A2E
:1012E000056182801CC4050963D70700184C63CAD6
:1012F000E700638845011C401387170018C08CA3C2
:1013000061B7228626850520E31035F9D9B71C4040
:101310001387170018C0294798A371B79387418195
:10132000AA85884315B7011122CC26CA4AC806CE21
:101330004EC6AA842E89328401C51C4D91E3ED2648
:10134000971700009387C71A6317F406C0401C4C18
:101350001CC45E24A18BC1C31C48B5CF1C480840E7
:101360009379F90F1379F90F1D8D5C486346F500E9
:10137000A2852685692C25E51C440505FD171CC49E
:101380001C401387170018C0238037015C4863880E
:10139000A7005E24858B81CBA9476316F900A2853F
:1013A0002685B5240DEDF24062444A85D244424977
:1013B000B24905618280971700009387671563140F
:1013C000F400804469B79717000093876710E31013
:1013D000F4F8C044ADBFA2852685212041D17D59B6
:1013E000D9B741119387418126C2844322C44AC0A0
:1013F00006C62A892E8489C49C4C99E326852D260D
:10140000971700009387C70E631BF402C0400317B1
:10141000C40093170701C18393F68700ADEA93F6E2
:10142000070195EEA5472320F900136707045AA486
:101430007D55B2402244924402494101828097176F
:1014400000009387E70C6314F4008044C9B7971732
:1014500000009387E707E31CF4FAC0444DBF918B6B
:101460009DC34C5889C9930744046384F5004A8599
:101470003123232A04025E242322040093F7B7FDBC
:101480005EA41C481CC05E2493E787005EA41C4831
:1014900099EB5E241307002093F707286385E70084
:1014A000A2854A85A1215E2413F717001DC35C485D
:1014B00023240400B307F0401CCC1C480145B5FBB5
:1014C0008317C40013F707082DD793E707045EA41A
:1014D00085B7898B014791E3584818C4F9BFDE25C9
:1014E000011122CC26CA06CE4AC84EC613F7870081
:1014F000AA842E8479EBD841634DE000B841634A59
:10150000E0000145F2406244D2444249B2490561DB
:10151000828058547DD703A904009396370123A0F5
:10152000040063DB060670485E24918B99C75C401B
:101530001D8E5C5899C33C401D8E5C540C508146F6
:1015400026858297FD575A24631DF5009440F54780
:1015500063E8D706B70740208507B3D7D700858B48
:10156000A5C31C48232204001CC09317370163D86D
:101570000700FD576314F5009C4091E368C84C5880
:1015800023A02401BDDD930744046384F500268570
:10159000F526232A0402B5B70C5001468546268558
:1015A0000297FD572A86E311F5F89C40B5DF754791
:1015B0006385E70059476393E70423A0240191B7AB
:1015C000136707045AA47D5535BF83A90501E38A33
:1015D00009F203A905008D8B23A035013309394198
:1015E000014791E3D84918C4E35D20F11C540C5025
:1015F000CA864E86268582976347A0005E2493E7BD
:1016000007045EA4C9B7AA993309A940F1BF9C4950
:10161000B9CF011122CC06CE2A8411C51C4D81E719
:101620002EC61922B24597170000938767EC639B7B
:10163000F5004C408397C50095C722856244F2406F
:10164000056171BD97170000938787EC6394F500DF
:101650000C44CDB797170000938787E7E39CF5FC10
:101660004C44C9BFF2406244014505618280014596
:101670008280411122C406C62A844EA572A5232069
:101680000500232205002324050023220506232824
:101690000500232A0500232C05002146814513055A
:1016A000C505EFE0FFAB97170000938767B15CD0EB
:1016B00097170000938787B31CD497170000938770
:1016C00067B75CD4971700009387C7B900D01CD8C0
:1016D000B24022444101828097050000938565F362
:1016E000A9A2411126C2130680069384F5FFB38494
:1016F000C4024AC02E8922C406C6938544071D260B
:101700002A8401CD2320050023222501310508C4A8
:10171000138684068145EFE0BFA42285B2402244AF
:1017200092440249410182801C4DADE3411106C63D
:1017300022C497070000938767FA1CD59387C1815D
:101740009C4323240504232605042328050463144D
:10175000F50085471CCD2A841D2848C02285052810
:1017600008C422852D2048C44840014691451137C0
:1017700008440546A545F53D48440946C945D53DBB
:1017800085471CCCB24022444101828082804111B5
:101790009387C18126C284434AC006C69C4C22C49A
:1017A0002A8999E326854937938484048044DC4060
:1017B000FD1763D607009C40B9CF8440C5BF03170F
:1017C000C40039E7C17785072322040623200400DB
:1017D00023220400232404005CC423280400232AB9
:1017E0000400232C0400214681451305C405EFE0C5
:1017F0003F97232A0402232C0402232404042326D3
:1018000004042285B240224492440249410182806C
:101810001304840671BF91454A85E13588C051FDA6
:10182000B1472320F9000144E9BF797122D44AD09D
:1018300052CC56CA5AC85EC606D626D24ECE2A8A80
:10184000AE8A130485040149054BFD5B09ECB250D7
:1018500022544A8592540259F249624AD24A424B72
:10186000B24B45618280044483294400FD1963D44E
:1018700009000040E1BFDE24637BFB008397E400A6
:1018800063877701A6855285829A3369A90093847C
:101890008406E9BF1971A6DAAE848395E500A2DC5F
:1018A00086DE328463DB0500DE2423A0060093F786
:1018B000070885E7930700401DA0300836C6EF00F3
:1018C000F01FB246E34205FE7247BD67F98F797794
:1018D000BA9793B717009CC2F1BF930700041CC0CE
:1018E000F6506654D654014509618280DE25011107
:1018F00022CC06CE26CA4AC8898B2E8489CF93076C
:1019000074041CC01CC885475CC8F2406244D244C1
:1019100042490561828074003000AA84A53FA24537
:101920002A892685012219E98317C40013F70720A5
:1019300069FFF19B93E727005EA4D1B797070000EA
:101940009387C7D99CD45E2408C008C893E70708CA
:101950005EA4A2475CC8B24781CF8315E400268508
:10196000EF00701811C55E24F19B93E717005EA489
:101970005E243369F9002316240141BFDDC183A72A
:10198000C5FF411122C406C626C21384C5FF63D316
:1019900007003E94AA84EF00D01B938701859C43E7
:1019A00081EF2322040023A881842244B2402685AB
:1019B000924441016F00101A637EF4001440330713
:1019C000D4006396E7009843DC43369718C05CC0A8
:1019D000D9BFBA87D84319C3E37DE4FE9443338665
:1019E000D700631F86001040B29694C33386D70099
:1019F000E31DC7FA10435843B29694C3D8C375B7D2
:101A00006375C400B1479CC04DB71040B306C40015
:101A10006316D70014435843B29614C058C0C0C3CD
:101A200069B78280011126CA93843500F19806CEE9
:101A300022CC4AC84EC6A104B14763F3F404B144B2
:101A400063E2B4042A89EF00D0109387018598439C
:101A50003A8439E0938741859C4391E781454A85E3
:101A60000D2F23AAA184A6854A852527FD59631930
:101A70003507B1472320F9004A85EF00B00D29A0B2
:101A8000E3D004FCB1471CC10145F2406244D2449A
:101A90004249B249056182801C40858F63CF0702AD
:101AA000AD4663F6F6001CC03E9404C031A05C4015
:101AB0006313870223A8F1844A85EF00B009130558
:101AC000B4009307440061993307F5405DDF3A9411
:101AD000898F1CC05DBF5CC3C5B72287404095BFDE
:101AE000130435007198E30285FCB305A4404A85D0
:101AF0004D25E31C35FBB5BF1C46FD171CC663DA3C
:101B00000700184E63C5E700A9476394F5006FF01E
:101B10009F811C422E851387170018C28CA38280D8
:101B2000011122CC26CA4AC84EC652C406CE2A8902
:101B3000AE893284B304D6007D5A63149400014503
:101B400001A80C204E864A85453F0504E31745FF52
:101B5000F2406244D2444249B249224A056182803D
:101B6000357122CD26CB4AC94EC706CF52C556C3C2
:101B70005AC1DEDEE2DCE6DAAA89AE843289368436
:101B800009C51C4D99E3EFF03FBA97170000938702
:101B900027966397F40C83A44900DE24A18BFDC330
:101BA0009C48EDC393070002A304F10293070003CE
:101BB00002D22305F10222C6930B5002971A0000AD
:101BC000938A0A97054C294B4A841C2099C3639E2B
:101BD000770DB30C2441638D0C00E6864A86A685FA
:101BE0004E853D3FFD57630FF51C9256E69636D263
:101BF0001C206389071CFD571309140002C802CE7C
:101C00003ECA02CCA309010482D4834509001546CB
:101C10005685252713041900C24751E913F7070118
:101C200009C713070002A309E10413F7870009C7D6
:101C30001307B002A309E104834609001307A002B9
:101C4000638FE606F2474A848146254618209305AD
:101C50001400130707FD6377E60AB5CA3ECE85A8D0
:101C6000971700009387C78A6395F40083A48900BF
:101C70002DB7971700009387A785E390F4F283A40C
:101C8000C90021BFA6854E85EFF0AFF501DD7D557A
:101C9000FA406A44DA444A49BA492A4A9A4A0A4BFB
:101CA000F65B665CD65C0D618280050439BF330546
:101CB00055413315AC00C98F3EC82289B9B73247A8
:101CC00093064700184336C6634707023ACE1820EA
:101CD0009307E002631DF70418309307A002631B0B
:101CE000F702B2470904138747009C433AC663C111
:101CF00007023ECA2DA83307E04093E727003ACEFB
:101D00003EC8F1B7B387670385462E84BA973DBFB7
:101D1000FD57C5B7050402CA8146814725461820EC
:101D200093051400130707FD6374E606F9F20C200F
:101D30000D461715000013052580012511CD9707C5
:101D400000009387677F1D8D93070004B397A7005A
:101D5000424505045D8D2AC80C2019461705000070
:101D60001305C57D130914002304B102F92335C1FD
:101D700097E7FFFF9387072995E74247B247137715
:101D8000071009CF91073EC69257D2973ED22DBD7C
:101D9000B387670385462E84BA9751B79D07E19BA9
:101DA000A107D5B77800970600009386A6D72686A8
:101DB0000C084E8597000000E7000000FD572A8AB6
:101DC000E314F5FCDE2493F70704E39207EC1255C5
:101DD000C1B57800970600009386C6D426860C0805
:101DE0004E85012AE1BF797156CA9C49BA8A984545
:101DF00022D426D24ECE52CC06D64AD05AC85EC67F
:101E0000AA892E84B284368A63D3E700BA879CC03D
:101E10000347340419C385079CC01C4093F707028D
:101E200081C79C4089079CC003290400137969007D
:101E3000631A0900130B9401FD5B5C449840998F71
:101E4000634CF9041C408346340493F70702B3360D
:101E5000D000A5EB13063404D2854E85829AFD5737
:101E60006303F5041C4011469840998B5444814407
:101E70006397C700B384E64063D3040081441C44E5
:101E800018486354F700998FBE94014969047D5B3B
:101E900063982405014509A885465A86D2854E8552
:101EA000829A631E75017D55B25022549254025994
:101EB000F249624AD24A424BB24B456182800509DF
:101EC000ADBF3307D40013060003A301C7040347C3
:101ED000540493871600A2978906A381E7049DBF47
:101EE00085462286D2854E85829AE30E65FB0509DA
:101EF00045B7797122D426D24AD04ECE06D652CCDE
:101F000056CA5AC8B689942D930790063289AA8476
:101F10002E8413863504638DF60263E2D706930799
:101F200080056385F61863EDD700638D062093075F
:101F30003004638EF60A930A24042301D404C9A052
:101F4000930730066385F60A93074006E395F6FE8D
:101F50001C40084393F6070893054500C5C61C417D
:101F60000CC363D807001307D002B307F040A301E6
:101F7000E404970600009386E65C294765A893076A
:101F800000076381F61663E5D7029307E0066388CE
:101F9000F6189307F006E390F6FA0C401C4313F88A
:101FA0000508138547006307080608C39C4385A8F6
:101FB00093075007E383F6FE930780076388F612C2
:101FC00093073007E399F6F61C43D0418145938689
:101FD000470014C383AA07005685852601C533052B
:101FE000554148C05C401CC8A301040461A81C43BF
:101FF000930A2404938647009C4314C32301F404EA
:102000008547D5B793F607041C410CC3B9DAC2075C
:10201000C18781BF93F5050408C3C9D99E2313075F
:10202000F0066386E60E970600009386A6512947C0
:10203000A30104044C400CC463C5050008406D991D
:1020400008C099E3B28A89CDB28AB3F5E702FD1AD6
:10205000B6958C212380BA00B3D5E70263FFE70A67
:10206000A147631EF7001C40858B91CB58401C484C
:1020700063C7E70093070003A38FFAFEFD1A330638
:10208000564110C84E87CA867000A2852685A13B9E
:102090007D5A631D450B7D55B2502254925402590E
:1020A000F249624AD24A424B45618280A382D504FA
:1020B00097060000938606490C40084313F805086C
:1020C0001C411105630D080208C313F7150001C771
:1020D00093E505020CC04147A1FF0C4093F5F5FDC7
:1020E0000CC0B9B79C4193E707029CC193078007D6
:1020F000A302F404970600009386064675BF13F802
:10210000050408C3E30308FCC207C1837DBF97062B
:10211000000093862643214721BFAE873DB79441F7
:102120001C43CC4913F806081385470063060800D2
:1021300008C39C438CC339A008C393F606049C4390
:10214000F5DA8EA323280400B28A2DBF14485686E0
:10215000CA8526858299E30045F51C40898B8DE769
:10216000B2474844E35AF5F23E853DB78546568668
:10217000CA8526858299E30065F3050A5C443247E7
:10218000998FE345FAFEE9BF014A930A94017D5B0A
:10219000F5B7411122C42A842E8523AC01D606C688
:1021A000EFE01FF9FD576317F500938781D79C4334
:1021B00091C31CC0B240224441018280411122C41B
:1021C0002E848395E50006C67922634905007C4884
:1021D000AA977CC8B2402244410182805E247D7768
:1021E0007D17F98F5EA4FDB7DE25011122CC26CA2A
:1021F0004AC84EC606CE93F70710AA842E843289A9
:10220000B68991C78395E5008946014609225E2477
:102210007D777D17F98F5EA48315E4006244F24058
:10222000CE864A86B24942492685D244056125A810
:10223000411122C42E848395E50006C6C928FD57A6
:102240005A24631AF500FD77FD17F98F5EA4B2409A
:102250002244410182808567D98F5EA468C8C5BFCA
:102260008395E50005A8411122C42A842E85B285F4
:10227000368623AC01D606C6EFE0FFE7FD576317AD
:10228000F500938781D79C4391C31CC0B240224480
:1022900041018280411122C42A842E8523AC01D6BB
:1022A00006C6C520FD576317F500938781D79C4369
:1022B00091C31CC0B240224441018280411122C41A
:1022C0002A842E85B28523AC01D606C6C920FD57C7
:1022D0006317F500938781D79C4391C31CC0B2401C
:1022E000224441018280411122C42A842E8523ACDC
:1022F00001D606C65D20FD576317F500938781D789
:102300009C4391C31CC0B2402244410182804111D0
:1023100022C42A842E85B285368623AC01D606C611
:102320005920FD576317F500938781D79C4391C3CC
:102330001CC0B24022444101828093F5F50F2A96D9
:102340006314C500014582801C21E38EB7FE05059C
:10235000C5BF82808280411122C42A842E85B28525
:10236000368623AC01D606C6A920FD576317F500B3
:10237000938781D79C4391C31CC0B2402244410142
:1023800082809307800523ACF1D67D558280930728
:10239000800523ACF1D67D5582809307800523AC60
:1023A000F1D6014582809307800523ACF1D67D5597
:1023B00082809307800523ACF1D67D558280000092
:1023C000CE080000E40700006C060000440800008E
:1023D0006C06000072070000A20600006C060000F8
:1023E000BC070000D2070000C80800007C070000FE
:1023F00009024300020100803209040000010202C8
:10240000010005240010010524010001042402023A
:1024100005240600010705810340000109040100AD
:10242000020A0000000705020240000007058302BF
:10243000400000001201100102000040861A0CFE4C
:1024400001000102000100000E0377006300680034
:102450002E0063006E00000016035500530042007A
:102460002000530065007200690061006C000000EC
:1024700016033000310032003300340035003600DE
:10248000370038003900000053797374656D436C70
:102490006B3A25640D0A00004368697049443A2587
:1024A0003038780D0A0000000D0A207374617274D0
:1024B000206C6F6F700D00004750494F20546F67BC
:1024C000676C6520544553540D0000000000000067
:1024D00000000000000000000000000000000000FC
:1024E00000000000000000000000000000000000EC
:1024F00000000000000000000000000000000000DC
:1025000000000000000000000000000000000000CB
:1025100000000000000000000000000000000000BB
:10252000000000000000000000000000232D302B00
:1025300020000000686C4C00656667454647000057
:1025400030313233343536373839414243444546E9
:1025500000000000303132333435363738396162AB
:082560006364656600000000E1
:10256800010203040506070801020304050607081B
:10257800010203040506070801020304050607080B
:1025880000000000EC2400000C250000CC24000012
:102598000000000000000000000000000000000033
:1025A8000000000000000000000000000000000023
:1025B8000000000000000000000000000000000013
:1025C8000000000000000000000000000000000003
:1025D80000000000000000000000000000000000F3
:1025E800006CDC0244444444444444444444444469
:1025F800FC0500202000002004030904200000201E
:00000001FF
