:040000006F20600D00
:1000040000000000000000005E0C0000660C000010
:1000140000000000D42000000000000000000000E8
:10002400D4200000D42000000000000000000000E4
:10003400D420000000000000D420000000000000D4
:10004400D4200000D4200000D420000000000000D0
:10005400D4200000D4200000D4200000D4200000CC
:10006400D4200000D4200000D4200000D4200000BC
:10007400D4200000D4200000D4200000D4200000AC
:10008400D4200000D4200000D4200000D42000009C
:10009400D4200000D4200000D4200000D42000008C
:1000A400D4200000D4200000D4200000D42000007C
:1000B400D420000098110000D4200000D4200000B7
:1000C400D4200000D4200000D4200000D42000005C
:1000D400D4200000D4200000D42000000000000040
:1000E400000000000000000000000000000000000C
:0C00F40000000000000000000000000000
:100100003D432A876373C3029377F700BDEFADE5E4
:10011000937606FF3D8ABA960CC34CC30CC74CC7F6
:100120004107E36BD7FE11E28280B306C3408A0623
:100130009702000096966780A6002307B700A306E3
:10014000B7002306B700A305B7002305B700A30433
:10015000B7002304B700A303B7002303B700A3022B
:10016000B7002302B700A301B7002301B700A30023
:10017000B7002300B700828093F5F50F93968500B2
:10018000D58D93960501D58D61B79396270097027B
:10019000000096968682E78086FA9680C1171D8FAA
:1001A0003E96E374C3F8A5B7797106D622D4001839
:1001B000232EA4FCAE87A30DF4FCA30704FE832723
:1001C000C4FD91C70347B4FD8D4763E4E700814751
:1001D00095A08347B4FDF91793F7F70FBE85032564
:1001E000C4FDB92EAA872316F4FE8347B4FDF91780
:1001F0000327C4FDBA9798238357C4FE93F7F70FDC
:100200006316F7028347B4FDFD170327C4FDBA97B1
:1002100098238357C4FEA183C207C18393F7F70FC6
:100220006316F7008547A307F4FE19A0A30704FE91
:100230008347F4FE3E85B250225445618280797135
:1002400006D622D40018232EA4FCAE87232AC4FC91
:10025000A30DF4FCA30704FE8327C4FD9C230947D8
:10026000638AE7040D476389E70805476398E70C4D
:100270008327C4FD8D079C233E85EF00007F8327E5
:10028000C4FD9823832744FD98A3832744FD850755
:10029000054798A3832744FD890723800700832708
:1002A00044FD8D070327C4FD383398A39147A30766
:1002B000F4FE69A08327C4FD8D079C233E85EF00D3
:1002C00010038327C4FD9823832744FD98A3832725
:1002D00044FD8507054798A3832744FD89072380AC
:1002E0000700832744FD8D070327C4FD383398A3F7
:1002F0009147A307F4FE99A08327C4FD8D079C2393
:100300003E85EF00500A8327C4FD9823832744FDD0
:1003100098A3832744FD8507054798A3832744FDB9
:10032000890723800700832744FD8D070327C4FD29
:10033000383398A39147A307F4FE01008347F4FEE6
:100340003E85B250225445618280797106D622D40E
:1003500026D20018232EA4FCAE87232AC4FCA30DAA
:10036000F4FCA30704FE8327C4FD9C233E8791472A
:10037000631DF7028327C4FD9823832744FD98A3B8
:10038000832744FD8507054798A3832744FD8907F4
:1003900023800700832744FD93843700ED2BAA8731
:1003A0009CA09147A307F4FE01008347F4FE3E851D
:1003B000B2502254925445618280797106D622D47B
:1003C0000018232EA4FCAE87232AC4FCA30DF4FC42
:1003D000A30704FE8327C4FD81C7832744FD99E357
:1003E000814791AA8347B4FDBE850325C4FD6D3BBB
:1003F000AA8799E3814781A28327C4FD9C230947EB
:100400006380E70A0D476385E71205476393E712A8
:100410008327C4FD9823832744FD98A38327C4FD25
:1004200013871700832744FD938617008347B4FD85
:100430003686BE853A852135AA87A307F4FE834711
:10044000F4FE8507A307F4FE8347F4FEBE8503256B
:1004500044FDFD20AA872316F4FE8347F4FE13878C
:100460001700A307E4FE3E87832744FDBA9703578E
:10047000C4FE1377F70F98A38357C4FEA183939606
:100480000701C1828347F4FE13871700A307E4FE28
:100490003E87832744FDBA9713F7F60F98A351A818
:1004A0008327C4FD9823832744FD98A38327C4FD95
:1004B00013871700832744FD938617008347B4FDF5
:1004C0003686BE853A855135AA87A307F4FE834751
:1004D000F4FE8507A307F4FE8347F4FEBE850325DB
:1004E00044FDB928AA872316F4FE8347F4FE138738
:1004F0001700A307E4FE3E87832744FDBA970357FE
:10050000C4FE1377F70F98A38357C4FEA183939675
:100510000701C1828347F4FE13871700A307E4FE97
:100520003E87832744FDBA9713F7F60F98A311A0CF
:1005300001008347F4FE3E85B2502254456182801B
:10054000797122D60018232EA4FCAE87A30DF4FCEB
:10055000FD572317F4FE81A88327C4FD13871700D6
:10056000232EE4FC9C232316F4FE0357E4FE83575A
:10057000C4FEB98FC207C18313F7F70F916706074F
:1005800093878719BA979E2313970701418783574B
:10059000E4FEA183C207C183C207C187B98FC20726
:1005A000C1872317F4FE8347B4FD1387F7FFA30D1C
:1005B000E4FCDDF38357E4FE3E85325445618280DE
:1005C000011106CE22CC0010232204FE232404FEB7
:1005D000232604FE85451145EF20C034854521457D
:1005E000EF20403485454145EF20C0338545054522
:1005F000EF204033A1672322F4FEC1472326F4FEF7
:1006000085472324F4FE930744FEBE853715014039
:10061000EF10503691672322F4FEC1472326F4FEE3
:1006200085472324F4FE930744FEBE853715014019
:10063000EF10503485672322F4FEC1472326F4FED1
:1006400085472324F4FE930744FEBE85B717014077
:10065000138507C0EF101032856793870780232228
:10066000F4FEC1472326F4FE85472324F4FE9307B6
:1006700044FEBE85B7170140138507C0EF10902FC9
:10068000A1472322F4FEC1472326F4FE85472324F5
:10069000F4FE930744FEBE85B7170140138507C0DB
:1006A000EF10502D89472322F4FEC1472326F4FE84
:1006B00085472324F4FE930744FEBE85B717014007
:1006C000138507C0EF10102B85472322F4FEC14786
:1006D0002326F4FE85472324F4FE930744FEBE85BB
:1006E000B7170140138507C0EF10D0288547232294
:1006F000F4FE930780042326F4FE930744FEBE8590
:10070000B717014013850780EF10D02689472322B1
:10071000F4FE930780042326F4FE930744FEBE856F
:10072000B717014013850780EF10D024C14723225B
:10073000F4FE930780042326F4FE930744FEBE854F
:10074000B717014013850780EF10D02293070002EE
:100750002322F4FE930780042326F4FE930744FE2D
:10076000BE85B717014013850780EF10B0209307AF
:1007700000042322F4FE930780042326F4FE93074B
:1007800044FEBE85B717014013850780EF10901E09
:10079000930700082322F4FE930780042326F4FE27
:1007A000930744FEBE85B717014013850780EF10FD
:1007B000701C0100F240624405618280411106C64E
:1007C00022C40008F53B0100B2402244410182806E
:1007D000011106CE22CC0010AA87A307F4FE83479E
:1007E000F4FE858B81EB0546A16537150140EF10BE
:1007F000305539A00146A16537150140EF1050541E
:100800000100F240624405618280011106CE22CCD3
:100810000010AA87A307F4FE8347F4FE858B81EBC3
:100820000546916537150140EF10905139A00146FA
:10083000916537150140EF10B0500100F24062445D
:1008400005618280011106CE22CC0010AA87A30781
:10085000F4FE8347F4FE858B91EB05468565B7175B
:100860000140138507C0EF10B04D09A8014685650A
:10087000B7170140138507C0EF10904C0100F240FC
:10088000624405618280011106CE22CC0010AA8745
:10089000A307F4FE8347F4FE858B81EF0546856749
:1008A00093850780B7170140138507C0EF105049A3
:1008B00019A80146856793850780B71701401385FE
:1008C00007C0EF10F0470100F240624405618280EA
:1008D000011106CE22CC0010AA87A307F4FE83479D
:1008E000F4FE858B91EB0546A145B71701401385B2
:1008F00007C0EF10F04409A80146A145B717014011
:10090000138507C0EF10D0430100F2406244056137
:100910008280011106CE22CC0010AA87A307F4FE24
:100920008347F4FE858B91EB05468945B717014057
:10093000138507C0EF10D04009A801468945B717B5
:100940000140138507C0EF10B03F0100F240624440
:1009500005618280011106CE22CC0010AA87A30770
:10096000F4FE8347F4FE858B91EB05468545B7176A
:100970000140138507C0EF10B03C09A8014685452A
:10098000B7170140138507C0EF10903B0100F240FC
:10099000624405618280011106CE22CC0010A307BB
:1009A00004FE8545B717014013850780EF10D03549
:1009B000AA8799E78347F4FE93E71700A307F4FE9D
:1009C0008945B717014013850780EF10F033AA87D8
:1009D00099E78347F4FE93E72700A307F4FEC14598
:1009E000B717014013850780EF101032AA8799E7E7
:1009F0008347F4FE93E74700A307F4FE9305000244
:100A0000B717014013850780EF101030AA8799E7C8
:100A10008347F4FE93E78700A307F4FE93050004E1
:100A2000B717014013850780EF10102EAA8799E7AA
:100A30008347F4FE93E70701A307F4FE930500083C
:100A4000B717014013850780EF10102CAA8799E78C
:100A50008347F4FE93E70702A307F4FE8347F4FEFF
:100A60003E85F240624405618280011106CE22CCAF
:100A70000010AA87A307F4FE8347F4FEBE859167A2
:100A80001385C712EF20004F8347F4FE3E8589335C
:100A90008347F4FE858393F7F70F3E85BD33834785
:100AA000F4FE898393F7F70F3E85693B8347F4FE95
:100AB0008D8393F7F70F3E85F9338347F4FE9183D7
:100AC00093F7F70F3E8529358347F4FE958393F717
:100AD000F70F3E853D3D8347F4FE998393F7F70F6B
:100AE0003E858D3D0100F240624405618280011126
:100AF00006CE22CC0010AA87A307F4FE8347F4FE9B
:100B0000BE85916713850714EF20C0468347F4FE26
:100B1000858B99C305456D398347F4FE8583A3070B
:100B2000F4FE8347F4FE858B99C30545F939834765
:100B3000F4FE8583A307F4FE8347F4FE858B99C3F7
:100B4000054509338347F4FE8583A307F4FE8347F5
:100B5000F4FE858B99C305453D338347F4FE8583B9
:100B6000A307F4FE8347F4FE858B99C305458D33B7
:100B70008347F4FE8583A307F4FE8347F4FE858B49
:100B800099C3054579338347F4FE8583A307F4FEB3
:100B90008347F4FE858B99C305456D3B0100F24008
:100BA000624405618280011106CE22CC0010AA8722
:100BB000A307F4FE8347F4FEBE85916713854715AE
:100BC000EF20403B8347F4FE858B99C301450931F3
:100BD0008347F4FE8583A307F4FE8347F4FE858BE9
:100BE00099C301451D318347F4FE8583A307F4FEB5
:100BF0008347F4FE858B99C30145A9318347F4FEF1
:100C00008583A307F4FE8347F4FE858B99C30145D2
:100C10009D398347F4FE8583A307F4FE8347F4FEE2
:100C2000858B99C301456D318347F4FE8583A30706
:100C3000F4FE8347F4FE858B99C30145D939834778
:100C4000F4FE8583A307F4FE8347F4FE858B99C3E6
:100C5000014509330100F24062440561828041117F
:100C600022C6000801A0411122C6000801A04111BE
:100C700006C622C4000885450545EF10B04A8545E3
:100C80000565EF10D0450100B24022444101828049
:100C9000011122CE0010B737024093870740130797
:100CA0000004D8A7B7370240938707401307800492
:100CB000D8B7B7370240938707401387C18598CBD1
:100CC000B7370240938707401387C189D8CBB7371E
:100CD000024093870740370700201307C71998CFB2
:100CE000B7370240938707401387C18DD8CFB737F6
:100CF0000240938707400947BAB3B737024093874A
:100D0000074023950702B737024093870740239295
:100D10000702B73702409387074023960702B73789
:100D20000240938707400947FAB3B73702409387D9
:100D300007400947FAB7A30704FE29A80347F4FEB2
:100D400093870183BA97238007008347F4FE8507C2
:100D5000A307F4FE0347F4FE9D47E3F1E7FE01001D
:100D6000724405618280011106CE22CC001023223C
:100D700004FE232404FE232604FE85454145EF108E
:100D8000703AC1672322F4FE91472326F4FE9307AD
:100D900044FEBE8537150140EF10C03DB707020085
:100DA0002322F4FE930780042326F4FE930744FED7
:100DB000BE8537150140EF10E03B0100F240624470
:100DC00005618280797106D622D40018232EA4FCF6
:100DD000232CB4FC8327C4FDD5C77137832784FD3A
:100DE00081EFB70701409C4F13F707F3B7070140A6
:100DF0001367870898CF19A8B70701409C4F13F7CE
:100E000007F3B70701401367C70C98CFB737024005
:100E10009387074023800700A53DB737024093879B
:100E20000740A3810700B7370240938707401307A5
:100E3000900298A3B7370240938707407D57F8A3E5
:100E4000B737024093870740130710F898B3B737B6
:100E50000240938707401D47B8A39307D00223267B
:100E6000F4FE8327C4FEFD8B0547B316F70037E772
:100E700000E08327C4FE9583938707048A07BA9707
:100E800094C3A1A8B7070140984FB7070140137753
:100E900007F798CFB737024093870740194798A3C1
:100EA0002945EF10F05CB737024093870740238055
:100EB00007009307D0022324F4FE832784FEFD8BD2
:100EC0000547B316F70037E700E0832784FE9583D4
:100ED000938707068A07BA9794C30100B250225439
:100EE00045618280797106D622D40018AA87232C06
:100EF000B4FC3687A30FF4FCB287231EF4FCBA8738
:100F0000230FF4FC8347F4FD638F07260347F4FDAA
:100F10009D4763EAE7260347F4FD93870183BA9769
:100F20009C2393F7F70F639E07240347F4FD85473F
:100F30006307F7000347F4FD91476314F702B737DF
:100F400002409387C7409C23A307F4FE0347F4FDA8
:100F500085476317F7088347F4FE9183A307F4FEE0
:100F600041A00347F4FD89476307F7000347F4FDF9
:100F70008D476314F702B73702409387D7409C230D
:100F8000A307F4FE0347F4FD8D47631BF704834773
:100F9000F4FE9183A307F4FEA1A00347F4FD954757
:100FA0006307F7000347F4FD99476314F702B73767
:100FB00002409387E7409C23A307F4FE0347F4FD18
:100FC0009947631FF7008347F4FE9183A307F4FE5C
:100FD00001A8B73702409387F7409C23A307F4FE8C
:100FE0008347F4FE918B6382071A8347F4FEA18B3B
:100FF000B9C38347F4FE858B95CB8347F4FD1397E4
:101000002700B737024093872742BA979C2393F76C
:10101000F70F93F7070491C7930700FC2307F4FE2B
:1010200081A8930700F82307F4FE99A09307000412
:101030002307F4FE35A88347F4FE858B85CB8347D1
:10104000F4FD13972700B737024093872742BA97DA
:101050009C2393F7F70F93F7070491C793070004B6
:101060002307F4FE31A0230704FE19A0230704FE82
:101070008347E4FEB1EB8347E4FD8DE3832784FDE2
:1010800093960701C1820347F4FDB7970010938739
:1010900047D0BA978A07368798C3B9A80347F4FDA3
:1010A000B7970010938747D0BA978A079843B70736
:1010B0000020BA973E878357C4FD3E86832584FD72
:1010C0003A85EF1010600DA80347E4FE8346F4FD57
:1010D000B7970010938747D0B6978A079C433E97EF
:1010E000B7070020BA973E878357C4FD3E86832505
:1010F00084FD3A85EF10F05C0347F4FDB7970010CC
:10110000938787D0BA978A073E878357C4FD1EA36B
:101110000357C4FD9D47630CF70083C7018493F711
:10112000F70F850713F7F70F2380E18411A883C712
:10113000118493F7F70F850713F7F70FA380E18466
:101140008347F4FD13972700B73702409387274260
:10115000BA979C2393F7F70F0347F4FD93162700E4
:1011600037370240130727423697F19B93F7F70F63
:101170001CA30347F4FD93870183BA97054798A3FF
:1011800029A0854729A0854719A0010081473E85F0
:10119000B250225445618280011122CE0010B7372F
:1011A000024093870740FC232304F4FEB737024034
:1011B00093870740FC33A303F4FE834784FE898BA7
:1011C000E38D072E834774FE93F707034147E38EB1
:1011D000E72C41476346F700638A07206F00102D14
:1011E000130700026388E700130700036389E73EE3
:1011F0006F00D02B834774FE93F7F7031307100299
:101200006384E71213073002638EE71613070002A8
:101210006398E71C83D7A182C207C18381EBB737EC
:1012200002409387074013070008BAB383C751826F
:1012300093F7F70F93F707066397071A83C741825F
:1012400093F7F70F1547638FE7081947639CE70C7F
:1012500083D7A1821397070141839307F00363E7C4
:10126000E70083D7A182C207C18319A093070004B6
:101270002316F4FE83A701820357C4FE3A86BE8577
:101280001385C185EF10F04383D7A182139707011F
:1012900041838357C4FEB307F74013970701418387
:1012A0002395E18203A701828357C4FE3E9723A0C2
:1012B000E182B7370240938707400357C4FE9AB3D1
:1012C000B737024093870740BE3313970701418326
:1012D000B73702409387074013470704420741830B
:1012E000BAB391A0B737024093870740BC3393F756
:1012F000F70FE207E18793F707F8139787016187F4
:1013000083C7D18293F7F70FE207E187D98F13974D
:1013100087016187B7370240938707401377F70F3C
:10132000B8B311A00100C1A0B737024093870740AE
:10133000FE33139707014183B73702409387074075
:101340001347070442074183FAB3B7370240938734
:101350000740FE33C207C183C207C187F19BC207A2
:10136000C18793E72700139707014187B7370240EA
:101370009387074042074183FAB393870183A38091
:1013800007009DA0B737024093870740FE371397A9
:1013900007014183B737024093870740134707048B
:1013A00042074183FAB7B737024093870740FE37B9
:1013B000C207C183C207C187F19BC207C18793E7F8
:1013C0002700139707014187B737024093870740EB
:1013D00042074183FAB793870183A381070029A0BD
:1013E00001006F00B00C01006F00500C834774FEC9
:1013F00093F7F70389C70947638DE704F9AAB7375D
:101400000240938707409C472316F4FE834774FEEF
:1014100093F70704638F071A83C7518293F7F70F77
:1014200093F7070699C32395018283D7A182C20748
:10143000C1836390071AB737024093870740239010
:101440000702B73702409387074013070004BAB377
:1014500049A2B737024093870740BE371397070169
:101460004183B73702409387074013470708420775
:101470004183BAB7B7370240938707409C4723158B
:10148000F4FE83D72184C207C1833E870607938772
:10149000C151BA970357A4FE9AA30357A4FE93071A
:1014A000000463F6E700930700042315F4FE835756
:1014B000A4FEA1CFA30404FE1DA883D72184C207E4
:1014C000C18313976700834794FE3E97834694FE3B
:1014D000B70700209387C719BA9798239387C153FA
:1014E000B69798A3834794FE8507A304F4FE834729
:1014F00094FEC207C1830357A4FEE3E0E7FC8357D1
:10150000A4FE13F7F70FA384E18483D72184C207D5
:10151000C18385071397070141832391E18483D712
:101520002184C207C18313976700B7070020938700
:10153000C7193E97B73702409387074098CF83D7A4
:101540002184139707014183BD4763FDE700239181
:101550000184B737024093870740370700201307FD
:10156000C71998CF83D74184C207C18385071397D2
:10157000070141832392E18483D761841397070194
:101580004183B54763FAE704B737024093870740C2
:10159000BE37139707014183B7370240938707404F
:1015A0004D9B42074183BAB7B73702409387074044
:1015B000BE37139707014183B7370240938707402F
:1015C0001367870042074183BAB705472384E18444
:1015D00021A001006F00806D01006F00206DB73702
:1015E0000240938707401307A00CBAB39387C185C5
:1015F0009823A382E1829387C18598332382E18275
:101600009387C185F823FC33A207D98F139707016D
:1016100041832395E1829387C185B823BC33A20718
:10162000D98F1397070141832393E1829387C18563
:10163000D823DC33A207D98F139707014183239462
:10164000E182231604FEA30704FE83C7518293F7A9
:10165000F70F93F70706F9C383C7518293F7F70F84
:1016600093F70702A1CB83C7418293F7F70F1307C4
:1016700010026384E702130710026347F7001307A1
:1016800000026384E70415A0130720026381E704C6
:1016900013073002638FE70209A81387818323A011
:1016A000E1829D472316F4FE35A0FD57A307F4FE03
:1016B00001000DA083C7518293F7F70F93F707043A
:1016C00091EBFD57A307F4FE31A0010021A001001A
:1016D00011A0010083D7A1821397070141839307CB
:1016E000F00363E7E70083D7A182C207C18319A093
:1016F000930700042316F4FE83A701820357C4FE58
:101700003A86BE851385C185EF10A07B03A70182B1
:101710008357C4FE3E9723A0E182C1A983C74182BB
:1017200093F7F70F2D476365F74A139727009167E3
:1017300093878739BA979C43828783D76182C20790
:10174000C183A183C207C18393F7F70F094763835E
:10175000E7020D476389E7040547639AE70C1167C1
:101760001307873C23A0E182916783C7873C231638
:10177000F4FED1A011671307C73D23A0E182916752
:101780009387C73DBC2313970701418391679387D4
:10179000C73DBC33C207C183A207C207C183BA9742
:1017A0002316F4FE49A883D76182C207C18393F749
:1017B000F70F05476387E70205476344F70089CBC6
:1017C00095A00947638AE7020D476382E70499A859
:1017D0001387818123A0E18283C781812316F4FED0
:1017E000B1A011671307074223A0E182916783C765
:1017F00007422316F4FE1DA811671307074323A011
:10180000E182916783C707432316F4FE05A01167A1
:101810001307874423A0E182916783C78744231677
:10182000F4FE29A0FD57A307F4FE010029A0FD57EF
:10183000A307F4FE010083D7A182C207C183035727
:10184000C4FE6376F7000357C4FE2395E18283D775
:10185000A1821397070141839307F00363E7E70031
:1018600083D7A182C207C18319A09307000423165E
:10187000F4FE83A701820357C4FE3A86BE85138512
:10188000C185EF10006403A701828357C4FE3E9711
:1018900023A0E18299AE83D76182C207C18313F787
:1018A000F70FA386E18291A683C7C18213F7F70FD2
:1018B000238EE18483D7A182139707014183854753
:1018C00063FEE73005472395E18209AE83D7618245
:1018D000C207C18313F7F70F2386E1820547A38769
:1018E000E18221A683C7518293F7F70FFD8B85E72D
:1018F00083D76182C207C18313F7F70F854763114E
:10190000F72E83C7E18293F7F70FF99B13F7F70FD1
:101910002387E182F1A483C7518293F7F70F13F76E
:10192000F70189476319F70683D76182C207C1832C
:1019300093F7F70FA9EF83D78182C207C18393F78B
:10194000F70F13071008638AE70013073008638452
:10195000E7020947638AE70035A0B737024093875B
:1019600007400947FAB325A8B737024093870740D5
:10197000239507022DA0B7370240938707400947F8
:10198000FAB731A8FD57A307F4FE010009A8FD57D7
:10199000A307F4FEB1A4FD57A307F4FE91A489A404
:1019A00083C7518293F7F70FFD8BA1E783D761823D
:1019B000C207C18313F7F70F85476318F7029167D2
:1019C0009387C73DFC3393F7070281CF83C7E1823A
:1019D00093F7F70F93E7170013F7F70F2387E182C9
:1019E00029A4FD57A307F4FE09A4FD57A307F4FE9D
:1019F000EDAA83C7518293F7F70F13F7F7018947D1
:101A0000631AF70A83D76182C207C18393F7F70F7E
:101A1000D1EF83D78182C207C18393F7F70F1307F2
:101A20001008638AE70013073008638AE704094750
:101A30006385E702BDA0B737024093870740FE33B6
:101A4000139707014183B737024093870740136715
:101A5000370042074183FAB395A0B7370240938716
:101A60000740BE37139707014183B737024093877A
:101A700007401367C70042074183BAB781A0B73751
:101A8000024093870740FE37139707014183B7371A
:101A90000240938707401367370042074183FAB734
:101AA00031A8FD57A307F4FE010009A8FD57A307BD
:101AB000F4FE25AAFD57A307F4FE05AA3DA2238E36
:101AC000018483D7A182139707014183854763FB74
:101AD000E71005472395E18231A2238E0184938785
:101AE000C185A380070083C7518293F7F70FFD8B51
:101AF00099EB83C7E18293F7F70F858BD5CF094721
:101B0000238EE18455A883C7518293F7F70F13F70B
:101B1000F70189476319F70883D78182C207C18318
:101B200093F7F70F13071008638AE70013073008CD
:101B30006386E70409476383E7028DA0B737024055
:101B400093870740FE33C207C18313F737008D47E1
:101B5000631FF7040547238EE18491A8B73702403D
:101B600093870740BE37C207C18313F7C700B14749
:101B70006311F7040547238EE18425A8B737024097
:101B800093870740FE37C207C18313F737008D479D
:101B90006313F7020547238EE18431A8FD57A3079D
:101BA000F4FE010011A8FD57A307F4FE31A00100C7
:101BB00021A0010011A0010083D7A1821397070182
:101BC0004183894763F2E70209472395E18229A807
:101BD000FD57A307F4FE11A8010001A8010031A0E0
:101BE000010021A0010011A001000347F4FE9307AA
:101BF000F00F631AF700B7370240938707401307C7
:101C0000F00CBAB365A083C7518293F7F70FE207D0
:101C1000E18763D1070683D7A18213970701418328
:101C20009307000463E7E70083D7A182C207C1835B
:101C300019A0930700042316F4FE83D7A1821397FB
:101C4000070141838357C4FEB307F7401397070189
:101C500041832395E182B7370240938707400357BA
:101C6000C4FE9AB3B73702409387074013070004B6
:101C7000BAB32DA883D7A182C207C18399EFB73722
:101C800002409387074023900702B73702409387AB
:101C9000074013070004BAB311A8B737024093876F
:101CA000074013070008BAB311A00100B73702407C
:101CB000938707400947F8A345A0834784FE858B97
:101CC00085CB23860182A386018223870182A38795
:101CD0000182B737024093870740A3810700EFE0F6
:101CE0003FFBB7370240938707400547F8A3ADA0F5
:101CF000834784FE918BB1CBB7370240938707406F
:101D00001147F8A32945EF00B076B7370240938713
:101D10000740DC3393F7F70F918B91CF83C7E182B4
:101D200093F7F70F93E7270013F7F70F2387E18265
:101D300083C7E18215A083C7E18293F7F70FF59B74
:101D400013F7F70F2387E18201A8B7370240938783
:101D50000740034784FEF8A3010072440561730045
:101D60002030411106C622C4000885451145EF0008
:101D7000703B854537050200EF00303F854509453A
:101D8000EF00B03E85450545EF00703581473E8543
:101D9000B240224441018280797106D622D40018D3
:101DA000AA872E87231FF4FCBA87A30EF4FC83476F
:101DB000D4FDB5CB9307D0022324F4FE832784FE01
:101DC000FD8B0547B316F70037E700E0832784FE55
:101DD0009583938707068A07BA9794C30357E4FD50
:101DE000B70700209387C759BA970347D4FD420726
:101DF000418385463A86BE850D45EFF0AF8E930749
:101E0000D0022326F4FE8327C4FEFD8B0547B316BC
:101E1000F70037E700E08327C4FE95839387070424
:101E20008A07BA9794C301003E85B2502254456197
:101E30008280411122C6000883C79184C207C183F2
:101E40003E85324441018280011122CE001023914F
:101E500001842392018423930184231704FE31A873
:101E60000357E4FE06079387C151BA9723900700F2
:101E70008357E4FE85072317F4FE0357E4FEBD47AE
:101E8000E3F0E7FE0100724405618280011106CE95
:101E900022CC0010231604FE231704FE0545EF0094
:101EA000900C992AEF007058F16713850720EF0016
:101EB000B06CB707002083A70708BE85916713851C
:101EC0008716EF10200B592CAA87BE8591671385C2
:101ED0008717EF10200A7135EFE07FD9EF00D0119E
:101EE000AA87BE850545EFE0FFEDB93FEFE01F8D06
:101EF0009307D0022324F4FE832784FEFD8B05473D
:101F0000B316F70037E700E0832784FE95839387B5
:101F100007048A07BA9794C30145EFE01FB591679C
:101F200013858718EF1040162937AA872316F4FE69
:101F30008357C4FEA5CB8357C4FE13F7F70F138650
:101F4000C157BA851385C153EFE02FC7AA8723165F
:101F5000F4FE8357C4FEA1C7231704FE25A0035730
:101F6000E4FE8356E4FE9387C157BA979823B707D8
:101F700000209387C759B69798A38357E4FE850737
:101F80002317F4FE0357E4FE8357C4FEE369F7FC0E
:101F90008357C4FE93F7F70FBE850145F53BA38435
:101FA000018459B713054006EF00D054B5BF411165
:101FB00006C622C40008B71702409843B71702406C
:101FC0001367170098C3B7170240D843B7170240EA
:101FD00013670705D8C3B7170240D443B7170240A9
:101FE000370700F91307F7F5758FD8C37120010083
:101FF000B240224441018280011122CE00102326EA
:1020000004FEB70700203777DC02130707C023A0C0
:10201000E708B7170240DC43918313F7F700B707CF
:10202000002093870700BA979C2393F7F70F232686
:10203000F4FEB7170240DC4393F7070891EFB707A8
:10204000002003A707088327C4FE3357F702B7070A
:10205000002023A0E70829A8B707002003A7070846
:102060008327C4FE3357F700B707002023A0E708F3
:102070000100724405618280411106C622C4000835
:1020800031200100B240224441018280411122C628
:102090000008B72702409843B7270240719B98C3B6
:1020A000B72702409843B72702401367270098C319
:1020B000B7170240D843B71702401377F7F0D8C3D9
:1020C00037170240B71702405843D8C301003244C3
:1020D0004101828001A097E1FF1F9381A17A17310E
:1020E0000020130121F2172500001305654197E533
:1020F000FF1F938525F11386018263FAC5008322B1
:10210000050023A0550011059105E3EAC5FE1385DE
:1021100001829385015C6377B500232005001105DA
:10212000E36DB5FEFD42739002BC8D427390428018
:102130009302800873A0023097E2FFFF9382C2EC03
:1021400093E2320073905230EFF07FE69702000086
:10215000938202D47390123473002030411122C64E
:102160000008B7F7FF1F938747709C433E853244B2
:1021700041018280397122DE80002326A4FC2324C1
:10218000B4FC232604FE232004FE232404FE232E75
:1021900004FC232204FE232C04FC832784FC9C479C
:1021A000BD8B2326F4FE832784FC9C47C18B89CBFF
:1021B000832784FCDC430327C4FED98F2326F4FE47
:1021C000832784FC9C4393F7F70FE1CF8327C4FC5C
:1021D0009C432322F4FE232404FE55A8832784FE77
:1021E0000547B317F700232EF4FC832784FC9C4398
:1021F0000327C4FDF98F2320F4FE032704FE832761
:10220000C4FD6311F708832784FE8A07232EF4FC9C
:102210008327C4FD3D47B317F700232CF4FC832725
:1022200084FD93C7F7FF032744FEF98F2322F4FEB2
:102230008327C4FD0327C4FEB317F700032744FE1A
:10224000D98F2322F4FE832784FC984793078002CA
:10225000631BF700832784FE05473317F7008327A6
:10226000C4FCD8CB05A0832784FC9847930780043F
:10227000631AF700832784FE05473317F700832787
:10228000C4FC98CB832784FE85072324F4FE032710
:1022900084FE9D47E3F4E7F48327C4FC032744FE50
:1022A00098C3832784FC9843C167938707F0F98F0D
:1022B000638607160327C4FCB7170140938707807E
:1022C0006319F700B707002083A747082322F4FE0D
:1022D00005A80327C4FCB7170140938707C06317FD
:1022E000F70083A781802322F4FE19A80327C4FCEA
:1022F000B71701406316F70083A7C1802322F4FEBD
:10230000232404FE65A8832784FEA1070547B3178D
:10231000F700232EF4FC832784FC9C430327C4FD91
:10232000F98F2320F4FE032704FE8327C4FD6312E4
:10233000F708832784FE8A07232EF4FC8327C4FD35
:102340003D47B317F700232CF4FC832784FD93C784
:10235000F7FF032744FEF98F2322F4FE8327C4FDF1
:102360000327C4FEB317F700032744FED98F2322A7
:10237000F4FE832784FC984793078002631BF700D1
:10238000832784FEA10705473317F7008327C4FC82
:10239000D8CB832784FC984793078004631BF700FE
:1023A000832784FEA10705473317F7008327C4FC62
:1023B00098CB832784FE85072324F4FE032784FE1D
:1023C0009D47E3F2E7F48327C4FC032744FED8C308
:1023D0000327C4FCB7170140938707806319F700F0
:1023E000B7070020032744FE23A2E70805A8032718
:1023F000C4FCB7170140938707C06317F700032792
:1024000044FE23A4E18019A80327C4FCB7170140A8
:102410006316F700032744FE23A6E180832784FC8C
:102420009843C167636EF70C8327C4FCDC4F2322FB
:10243000F4FE232404FE5DA8832784FEC10705471C
:10244000B317F700232EF4FC832784FC9C43032757
:10245000C4FDF98F2320F4FE032704FE8327C4FD67
:102460006311F708832784FE8A07232EF4FC832751
:10247000C4FD3D47B317F700232CF4FC832784FDEC
:1024800093C7F7FF032744FEF98F2322F4FE832727
:10249000C4FD0327C4FEB317F700032744FED98FFA
:1024A0002322F4FE832784FC984793078002631B52
:1024B000F700832784FEC10705473317F7008327FA
:1024C000C4FCD8CB832784FC984793078004631A05
:1024D000F700832784FE05473317F7008327C4FCE2
:1024E00098D3832784FE85072324F4FE032784FEE4
:1024F0009D47E3F3E7F48327C4FC032744FED8CFCA
:102500000100725421618280797122D60018232E35
:10251000A4FC232CB4FCA30704FE8327C4FD984726
:10252000832784FDF98F89C78547A307F4FE19A087
:10253000A30704FE8347F4FE3E8532544561828042
:10254000011122CE00102326A4FE2324B4FE232250
:10255000C4FE832744FE8DC3032784FEC167FD1795
:102560007D8F8327C4FE98CB832784FE13D7070172
:102570008327C4FE98D331A08327C4FE032784FE9B
:10258000D8CB0100724405618280797122D600188F
:10259000232EA4FC232CB4FC232404FE232204FEBB
:1025A000232604FE232004FEB7070140DC43232634
:1025B000F4FE8327C4FDC183BD8B2320F4FE0327D3
:1025C000C4FDC167FD17F98F2324F4FE0327C4FD62
:1025D000B7070008F98FE9CF0327C4FDB70730001C
:1025E0007D8FB70730006315F7020327C4FEB707D6
:1025F00000F1FD17F98F2326F4FEB7070140D443FD
:10260000B7070140370700F17D17758FD8C31DA2AA
:102610000327C4FDB7074000F98F9DCFB78703009C
:102620002322F4FE832744FE93C7F7FF0327C4FE4B
:10263000F98F2326F4FE832784FD89CB832784FE2C
:10264000BE070327C4FED98F2326F4FEB707014037
:102650000327C4FED8C329A20327C4FDB70730004F
:102660007D8FB70720006314F702832704FEC1079C
:102670001D47B317F7002322F4FE832744FE93C7B8
:10268000F7FF0327C4FEF98F2326F4FE65A08327F6
:1026900004FE1D47B317F7002322F4FE832744FEF0
:1026A00093C7F7FF0327C4FEF98F2326F4FE59A032
:1026B0000327C4FDB70730007D8FB70730006314D0
:1026C000F702832704FEC1070D47B317F700232243
:1026D000F4FE832744FE93C7F7FF0327C4FEF98F58
:1026E0002326F4FE81A80327C4FDB7071000F98F45
:1026F00095C3832704FE0D47B317F7002322F4FE8A
:10270000832744FE93C7F7FF0327C4FEF98F2326D0
:10271000F4FE0DA08327C4FDD5839D8B920703276C
:1027200084FEB317F70093C7F7FF0327C4FEF98FA2
:102730002326F4FE832784FD99CF8327C4FDD58308
:102740009D8B9207032784FEB317F7000327C4FE6F
:10275000D98F2326F4FEB70701400327C4FED8C350
:10276000325445618280011122CE00102326A4FE3E
:102770000327C4FE23A6E184010072440561828020
:10278000797122D60018232EA4FC232604FEB777E5
:1027900000409C432326F4FE8327C4FE93F7F7F9F9
:1027A0002326F4FE0327C4FE8327C4FDD98F2326E6
:1027B000F4FEB77700400327C4FE98C301003254EB
:1027C00045618280797122D60018232EA4FC23262D
:1027D00004FEB7770040D8438327C4FDF98F89C72B
:1027E00085472326F4FE19A0232604FE8327C4FE72
:1027F0003E85325445618280011106CE22CC001004
:1028000085472326F4FE1521854537050010B12A9A
:1028100013050006B5372945A12911456537AA8753
:1028200099E3232604FE0145A13F8327C4FE3E858C
:10283000F240624405618280797122D60018232E0D
:10284000A4FC232604FE232404FE8327C4FD37773B
:10285000DC02130707C098C3B7170240DC4393F7A5
:10286000070F2326F4FE8327C4FE91832326F4FE5C
:10287000B7070020138707018327C4FEBA979C235C
:1028800093F7F70F2324F4FEB7170240DC4393F7C6
:10289000070881EF8327C4FD9843832784FE3357BD
:1028A000F7028327C4FDD8C319A88327C4FD984322
:1028B000832784FE3357F7008327C4FDD8C38327BB
:1028C000C4FDD8438327C4FD98C78327C4FDD843DC
:1028D0008327C4FDD8C701003254456182800111AD
:1028E00022CE00102326A4FE2324B4FE832784FED8
:1028F00099CBB7170240D44BB71702400327C4FE49
:10290000558FD8CB21A8B7170240D44B8327C4FEDC
:1029100013C7F7FFB7170240758FD8CB0100724479
:1029200005618280011122CE00102326A4FE2324FB
:10293000B4FE832784FE99CBB7170240944FB71794
:1029400002400327C4FE558F98CF21A8B717024035
:10295000944F8327C4FE13C7F7FFB7170240758F44
:1029600098CF0100724405618280011122CE0010CF
:102970002326A4FE2324B4FE832784FE99CBB71715
:102980000240D44FB71702400327C4FE558FD8CF5B
:1029900021A8B7170240D44F8327C4FE13C7F7FFFF
:1029A000B7170240758FD8CF01007244056182804D
:1029B0005D7186C6A2C48008232EA4FA232CB4FA23
:1029C000232404FE232604FE232204FE232004FEE7
:1029D000232E04FC8327C4FB232EF4FC8327C4FB93
:1029E0009E2BC207C1832324F4FE032784FEB56710
:1029F000FD17F98F2324F4FE832784FBFE233E87F3
:102A0000832784FED98F2324F4FE832784FE139723
:102A1000070141838327C4FB9AAB8327C4FBDE27CE
:102A2000C207C1832324F4FE032784FEBD67938776
:102A3000379FF98F2324F4FE832784FBDA2383272F
:102A400084FB9E27D98F139707014183832784FB3B
:102A5000BE27D98FC207C1833E87832784FED98FC3
:102A60002324F4FE832784FE1397070141838327E1
:102A7000C4FBDAA78327C4FBDE2BC207C183232450
:102A8000F4FE032784FEC1679387F7CFF98F2324D1
:102A9000F4FE832784FBDE273E87832784FED98FBD
:102AA0002324F4FE832784FE1397070141838327A1
:102AB000C4FBDAAB9307C4FC3E85BD3B0327C4FDD2
:102AC000B7470140938707806317F700832784FD8A
:102AD0002326F4FE29A0832744FD2326F4FE0327A2
:102AE000C4FEBA878607BA978E073E97832784FB72
:102AF0009C438A07B357F7022322F4FE032744FEC0
:102B000093074006B357F70292072324F4FE832766
:102B100084FE13D7470093074006B307F702032745
:102B200044FEB307F7402320F4FE832704FE9207F8
:102B30001387270393074006B357F702BD8B03277C
:102B400084FED98F2324F4FE832784FE1397070184
:102B500041838327C4FB9AA70100B64026446161E4
:102B60008280011122CE00102326A4FE2324B4FE6D
:102B7000832784FE85C38327C4FEDE2713970701BE
:102B800041838967D98F1397070141838327C4FE47
:102B9000DAA705A08327C4FEDE2713970701418328
:102BA000F977FD17F98F1397070141838327C4FE37
:102BB000DAA70100724405618280011122CE001063
:102BC0002326A4FEAE872315F4FE8357A4FE93F7B5
:102BD000F71F1397070141838327C4FEDAA301007F
:102BE000724405618280797122D60018232EA4FCDC
:102BF000AE87231DF4FC232604FE8327C4FD9E23F9
:102C00001397070141838357A4FDF98FC207C1833E
:102C100089C785472326F4FE19A0232604FE8327AF
:102C2000C4FE3E85325445618280411122C60008AF
:102C3000B707002003A70708B7177A009387072074
:102C4000B357F70213F7F70F2388E18483C7018591
:102C50001397070141839307803EB307F702139749
:102C6000070141832399E1840100324441018280BC
:102C7000797122D60018232EA4FC37F700E05443C4
:102C800037F700E0F99A54C303C70185BA860327D2
:102C9000C4FD3307D7022326E4FE37F700E083267E
:102CA000C4FEB68701481CCB232A0701B7F700E012
:102CB0009843B7F700E01367070198C3B7F700E040
:102CC0009843B7F700E01367170298C30100B7F7FE
:102CD00000E0DC4313F717008547E31AF7FEB7F768
:102CE00000E09843B7F700E0799B98C301003254A5
:102CF00045618280797122D60018232EA4FC37F713
:102D000000E0544337F700E0F99A54C303D7218514
:102D1000BA860327C4FD3307D7022326E4FE37F71C
:102D200000E08326C4FEB68701481CCB232A070196
:102D3000B7F700E09843B7F700E01367070198C3BF
:102D4000B7F700E09843B7F700E01367170298C39E
:102D50000100B7F700E0DC4313F717008547E31ADB
:102D6000F7FEB7F700E09843B7F700E0799B98C308
:102D70000100325445618280797106D622D4001850
:102D8000232EA4FC854537050200EFF01FBE8545C4
:102D90001145EFF03FB985450545EFF0BFB88545D2
:102DA000B707000813850720EFF02FFE8327C4FD27
:102DB0002320F4FE231204FE231304FE231404FE36
:102DC000231604FEA1472315F4FE930704FEBE85D7
:102DD000B747004013850740EFF09FBD8545B747D3
:102DE000004013850740B53B0100B25022544561B5
:102DF0008280797106D622D40018232EA4FC232CBD
:102E0000B4FC232AC4FC232604FE232604FE81A04E
:102E1000010093050004B747004013850740E133E4
:102E2000AA87E5DB832784FD13871700232CE4FCA6
:102E300083870700C207C183BE85B747004013855B
:102E40000740A53B8327C4FE85072326F4FE0327FE
:102E5000C4FE832744FDE34DF7FA832744FD3E85F6
:102E6000B250225445618280011122CE00102326E7
:102E7000A4FE03A701818327C4FE3E979387015CCC
:102E8000636DF70003A701818327C4FE3E97B75700
:102E900000209387078063F4E700FD5739A803A754
:102EA00001818327C4FE3E9723A8E18003A7018107
:102EB0008327C4FEB307F040BA973E85724405618C
:102EC0008280B3C7A5008D8B3307C50081E78D478E
:102ED00063EDC700AA87637EE50894218507850511
:102EE000A38FD7FEE3EBE7FE828093763500AA87B7
:102EF00089CA942185078505A38FD7FE93F63700ED
:102F0000C5BF9376C7FF138606FE63F0C70683A38B
:102F1000050083A2450083AF850003AFC50083AEE3
:102F2000050103AE450103A3850183A8C50193856F
:102F3000450223A0770003A8C5FF23A2570023A4BE
:102F4000F70123A6E70123A8D70123AAC70123ACD1
:102F5000670023AE17019387470223AE07FF75B7BB
:102F600090419107910523AEC7FEE3EBD7FEE3E660
:102F7000E7F6828039713EDA2ED232D436D63AD88C
:102F800042DC46DE9387418122CC804326CA06CEAE
:102F9000AA8409C41C4C99E32285ED290C445410E1
:102FA0002686228536C6EF007012F2406244D24473
:102FB00021618280011126CA4AC806CE22CC4EC6A3
:102FC00052C4AA842E8901C51C4D91E3E1219C4C79
:102FD000804499E326857D29971700009387874AC7
:102FE000631BF402C0405E24A18BB1C71C48A1C77B
:102FF000FD59294A1C4483450900FD17B1E91CC449
:1030000063DD07062286A94526856120FD576308F2
:10301000F502294535A0971700009387A748631448
:10302000F4008044C9B7971700009387A743E31CB7
:10303000F4FAC0444DBFA2852685112A55D97D5585
:10304000F2406244D2444249B249224A0561828038
:103050001CC4050963D70700184C63CAE7006388DE
:1030600045011C401387170018C08CA361B7228646
:1030700026850520E31035F9D9B71C4013871700C2
:1030800018C0294798A371B793874181AA858843BF
:1030900015B7011122CC26CA4AC806CE4EC6AA844C
:1030A0002E89328401C51C4D91E3ED26971700004F
:1030B0009387473D6317F406C0401C4C1CC45E2434
:1030C000A18BC1C31C48B5CF1C4808409379F90FA8
:1030D0001379F90F1D8D5C486346F500A28526859E
:1030E000692C25E51C440505FD171CC41C401387ED
:1030F000170018C0238037015C486388A7005E244E
:10310000858B81CBA9476316F900A2852685B52456
:103110000DEDF24062444A85D2444249B24905610C
:103120008280971700009387E7376314F400804488
:1031300069B7971700009387E732E310F4F8C044AB
:10314000ADBFA2852685212041D17D59D9B7411136
:103150009387418126C2844322C44AC006C62A8975
:103160002E8489C49C4C99E326852D269717000050
:1031700093874731631BF402C0400317C4009317C1
:103180000701C18393F68700ADEA93F6070195EE38
:10319000A5472320F900136707045AA47D55B240C0
:1031A000224492440249410182809717000093878C
:1031B000672F6314F4008044C9B797170000938702
:1031C000672AE31CF4FAC0444DBF918B9DC34C5851
:1031D00089C9930744046384F5004A853123232A6F
:1031E00004025E242322040093F7B7FD5EA41C486A
:1031F0001CC05E2493E787005EA41C4899EB5E2404
:103200001307002093F707286385E700A2854A8506
:10321000A1215E2413F717001DC35C48232404007A
:10322000B307F0401CCC1C480145B5FB8317C40014
:1032300013F707082DD793E707045EA485B7898B9A
:10324000014791E3584818C4F9BFDE25011122CC8B
:1032500026CA06CE4AC84EC613F78700AA842E8413
:1032600079EBD841634DE000B841634AE000014585
:10327000F2406244D2444249B249056182805854C6
:103280007DD703A904009396370123A0040063DBD4
:10329000060670485E24918B99C75C401D8E5C5871
:1032A00099C33C401D8E5C540C5081462685829704
:1032B000FD575A24631DF5009440F54763E8D7068F
:1032C000B70740208507B3D7D700858BA5C31C4817
:1032D000232204001CC09317370163D80700FD5751
:1032E0006314F5009C4091E368C84C5823A0240166
:1032F000BDDD930744046384F5002685F526232A63
:103300000402B5B70C500146854626850297FD5745
:103310002A86E311F5F89C40B5DF75476385E70021
:1033200059476393E70423A0240191B71367070467
:103330005AA47D5535BF83A90501E38A09F203A983
:1033400005008D8B23A0350133093941014791E3F5
:10335000D84918C4E35D20F11C540C50CA864E862F
:10336000268582976347A0005E2493E707045EA446
:10337000C9B7AA993309A940F1BF9C49B9CF011136
:1033800022CC06CE2A8411C51C4D81E72EC61922F7
:10339000B245971700009387E70E639BF5004C40FA
:1033A0008397C50095C722856244F240056171BDCF
:1033B000971700009387070F6394F5000C44CDB76F
:1033C000971700009387070AE39CF5FC4C44C9BF9C
:1033D000F2406244014505618280014582804111CD
:1033E00022C406C62A844EA572A5232005002322E6
:1033F0000500232405002322050623280500232A8F
:103400000500232C0500214681451305C505EFC0A5
:103410003FCF97170000938787B15CD097170000C4
:103420009387A7B31CD497170000938787B75CD402
:10343000971700009387E7B900D01CD8B240224408
:103440004101828097050000938565F3A9A241118F
:1034500026C2130680069384F5FFB384C4024AC0D3
:103460002E8922C406C6938544071D262A8401CDD1
:103470002320050023222501310508C41386840674
:103480008145EFC0FFC72285B240224492440249E1
:10349000410182801C4DADE3411106C622C497074D
:1034A0000000938767FA1CD59387C1819C4323242E
:1034B000050423260504232805046314F500854725
:1034C0001CCD2A841D2848C02285052808C42285D1
:1034D0002D2048C44840014691451137084405460F
:1034E000A545F53D48440946C945D53D85471CCC11
:1034F000B240224441018280828041119387C18180
:1035000026C284434AC006C69C4C22C42A8999E339
:1035100026854937938484048044DC40FD1763D6B4
:1035200007009C40B9CF8440C5BF0317C40039E7EA
:10353000C1778507232204062320040023220400E8
:10354000232404005CC423280400232A0400232C21
:103550000400214681451305C405EFC07FBA232A24
:103560000402232C040223240404232604042285B9
:10357000B2402244924402494101828013048406ED
:1035800071BF91454A85E13588C051FDB14723207F
:10359000F9000144E9BF797122D44AD052CC56CA0D
:1035A0005AC85EC606D626D24ECE2A8AAE8A1304E2
:1035B00085040149054BFD5B09ECB25022544A8554
:1035C00092540259F249624AD24A424BB24B456187
:1035D0008280044483294400FD1963D4090000401B
:1035E000E1BFDE24637BFB008397E4006387770100
:1035F000A6855285829A3369A90093848406E9BF1F
:103600001971A6DAAE848395E500A2DC86DE3284E9
:1036100063DB0500DE2423A0060093F7070885E797
:10362000930700401DA0300836C6EF001020B246B8
:10363000E34205FE7247BD67F98F7977BA9793B772
:1036400017009CC2F1BF930700041CC0F6506654DB
:10365000D654014509618280DE25011122CC06CEB7
:1036600026CA4AC8898B2E8489CF930774041CC04C
:103670001CC885475CC8F2406244D2444249056197
:10368000828074003000AA84A53FA2452A8926853D
:10369000012219E98317C40013F7072069FFF19B82
:1036A00093E727005EA4D1B7970700009387C7D997
:1036B0009CD45E2408C008C893E707085EA4A2470C
:1036C0005CC8B24781CF8315E4002685EF009018CF
:1036D00011C55E24F19B93E717005EA45E24336955
:1036E000F9002316240141BFDDC183A7C5FF4111A5
:1036F00022C406C626C21384C5FF63D307003E94C6
:10370000AA84EF00F01B938741859C4381EF23221D
:10371000040023AA81842244B240268592444101B8
:103720006F00301A637EF40014403307D4006396B0
:10373000E7009843DC43369718C05CC0D9BFBA870E
:10374000D84319C3E37DE4FE94433386D700631F57
:1037500086001040B29694C33386D700E31DC7FAA3
:1037600010435843B29694C3D8C375B76375C40069
:10377000B1479CC04DB71040B306C4006316D700D4
:1037800014435843B29614C058C0C0C369B782806E
:10379000011126CA93843500F19806CE22CC4AC87E
:1037A0004EC6A104B14763F3F404B14463E2B40428
:1037B0002A89EF00F0109387418598433A8439E0D5
:1037C000938781859C4391E781454A85152F23ACDA
:1037D000A184A6854A852D27FD5963193507B14770
:1037E0002320F9004A85EF00D00D29A0E3D004FC86
:1037F000B1471CC10145F2406244D2444249B2493A
:10380000056182801C40858F63CF0702AD4663F659
:10381000F6001CC03E9404C031A05C4063138702D4
:1038200023AAF1844A85EF00D0091305B400930759
:10383000440061993307F5405DDF3A94898F1CC0DD
:103840005DBF5CC3C5B72287404095BF13043500F8
:103850007198E30285FCB305A4404A855525E31C15
:1038600035FBB5BF1C46FD171CC663DA0700184EB2
:1038700063C5E700A9476394F5006FF09F811C4280
:103880002E851387170018C28CA38280011122CCC9
:1038900026CA4AC84EC652C406CE2A89AE89328488
:1038A000B304D6007D5A63149400014501A80C208E
:1038B0004E864A85453F0504E31745FFF2406244C2
:1038C000D2444249B249224A05618280357122CDF3
:1038D00026CB4AC94EC706CF52C556C35AC1DEDEF3
:1038E000E2DCE6DAAA89AE843289368409C51C4D49
:1038F00099E3EFF03FBA971700009387A7B8639753
:10390000F40C83A44900DE24A18BFDC39C48EDC3C5
:1039100093070002A304F1029307000302D22305D8
:10392000F10222C6930B5002971A0000938A8AB9BB
:10393000054C294B4A841C2099C3639E770DB30C18
:103940002441638D0C00E6864A86A6854E853D3F60
:10395000FD57630FF51C9256E69636D21C206389FC
:10396000071CFD571309140002C802CE3ECA02CC40
:10397000A309010482D483450900154656852D27E5
:1039800013041900C24751E913F7070109C71307C8
:103990000002A309E10413F7870009C71307B00267
:1039A000A309E104834609001307A002638FE6061A
:1039B000F2474A84814625461820930514001307D0
:1039C00007FD6377E60AB5CA3ECE85A897170000C3
:1039D000938747AD6395F40083A489002DB79717AB
:1039E0000000938727A8E390F4F283A4C90021BFC5
:1039F000A6854E85EFF0AFF501DD7D55FA406A44AE
:103A0000DA444A49BA492A4A9A4A0A4BF65B665C42
:103A1000D65C0D618280050439BF330555413315ED
:103A2000AC00C98F3EC82289B9B732479306470018
:103A3000184336C6634707023ACE18209307E002C0
:103A4000631DF70418309307A002631BF702B24707
:103A50000904138747009C433AC663C107023ECA64
:103A60002DA83307E04093E727003ACE3EC8F1B7D0
:103A7000B387670385462E84BA973DBFFD57C5B708
:103A8000050402CA81468147254618209305140083
:103A9000130707FD6374E606F9F20C200D461715AF
:103AA00000001305A5A2092511CD971700009387E3
:103AB000E7A11D8D93070004B397A70042450504B5
:103AC0005D8D2AC80C20194617150000130545A066
:103AD000130914002304B102C12B35C197C7FFFF9E
:103AE0009387475295E74247B2471377071009CFAC
:103AF00091073EC69257D2973ED22DBDB38767033A
:103B000085462E84BA9751B79D07E19BA107D5B78B
:103B10007800970600009386A6D726860C084E8567
:103B200097000000E7000000FD572A8AE314F5FC27
:103B3000DE2493F70704E39207EC1255C1B5780031
:103B4000970600009386C6D426860C084E85012A67
:103B5000E1BF797156CA9C49BA8A984522D426D2C7
:103B60004ECE52CC06D64AD05AC85EC6AA892E84FA
:103B7000B284368A63D3E700BA879CC00347340413
:103B800019C385079CC01C4093F7070281C79C405E
:103B900089079CC00329040013796900631A09008E
:103BA000130B9401FD5B5C449840998F634CF904BE
:103BB0001C408346340493F70702B336D000A5EBCC
:103BC00013063404D2854E85829AFD576303F504AB
:103BD0001C4011469840998B544481446397C70018
:103BE000B384E64063D3040081441C441848635402
:103BF000F700998FBE94014969047D5B63982405A1
:103C0000014509A885465A86D2854E85829A631E4B
:103C100075017D55B250225492540259F249624ABC
:103C2000D24A424BB24B456182800509ADBF330792
:103C3000D40013060003A301C70403475404938769
:103C40001600A2978906A381E7049DBF85462286B8
:103C5000D2854E85829AE30E65FB050945B77971D9
:103C600022D426D24AD04ECE06D652CC56CA5AC8F4
:103C7000B689942D930790063289AA842E841386E0
:103C80003504638DF60263E2D706930780056386E9
:103C9000F61863EDD700638E062093073004638E19
:103CA000F60A930A24042301D404C9A0930730061A
:103CB0006385F60A93074006E395F6FE1C40084329
:103CC00093F6070893054500C5C61C410CC363D88D
:103CD00007001307D002B307F040A301E4049706DE
:103CE00000009386667F294765A8930700076382D3
:103CF000F61663E5D7029307E0066389F618930783
:103D0000F006E390F6FA0C401C4313F805081385FF
:103D100047006307080608C39C4385A8930750071C
:103D2000E383F6FE930780076389F6129307300753
:103D3000E399F6F61C43D04181459386470014C3AE
:103D400083AA070056858D2601C53305554148C015
:103D50005C401CC8A301040461A81C43930A24040A
:103D6000938647009C4314C32301F4048547D5B7C9
:103D700093F607041C410CC3B9DAC207C18781BF9F
:103D800093F5050408C3C9D99E231307F00663877A
:103D9000E60E97060000938626742947A3010404C3
:103DA0004C400CC463C5050008406D9908C099E3F8
:103DB000B28A89CDB28AB3F5E702FD1AB6958C2195
:103DC0002380BA00B3D5E70263F0E70CA147631E76
:103DD000F7001C40858B91CB58401C4863C7E70017
:103DE00093070003A38FFAFEFD1A3306564110C84D
:103DF0004E87CA867000A2852685EFF09FD57D5A32
:103E0000631D450B7D55B250225492540259F2491C
:103E1000624AD24A424B45618280A382D50497060A
:103E200000009386666B0C40084313F805081C419C
:103E30001105630D080208C313F7150001C793E5C8
:103E400005020CC04147B9FB0C4093F5F5FD0CC0D1
:103E5000B1B79C4193E707029CC193078007A30277
:103E6000F404970600009386666875BF13F805048E
:103E700008C3E30308FCC207C1837DBF97060000A7
:103E800093868665214719BFAE8735B794411C4399
:103E9000CC4913F80608138547006306080008C3D9
:103EA0009C438CC339A008C393F606049C43F5DAFF
:103EB0008EA323280400B28A25BF14485686CA85DB
:103EC00026858299E30045F51C40898B8DE7B24732
:103ED0004844E35AF5F23E853DB785465686CA8585
:103EE00026858299E30065F3050A5C443247998F81
:103EF000E345FAFEE9BF014A930A94017D5BF5B7F9
:103F0000411122C42A842E8523AE015A06C6EFE051
:103F1000BFF5FD576317F5009387C15B9C4391C3C1
:103F20001CC0B240224441018280411122C42E842F
:103F30008395E50006C67922634905007C48AA9767
:103F40007CC8B2402244410182805E247D777D1787
:103F5000F98F5EA4FDB7DE25011122CC26CA4AC81E
:103F60004EC606CE93F70710AA842E843289B689EE
:103F700091C78395E5008946014609225E247D7735
:103F80007D17F98F5EA48315E4006244F240CE866B
:103F90004A86B24942492685D244056125A8411185
:103FA00022C42E848395E50006C6C928FD575A24ED
:103FB000631AF500FD77FD17F98F5EA4B240224425
:103FC000410182808567D98F5EA468C8C5BF83958B
:103FD000E50005A8411122C42A842E85B2853686C3
:103FE00023AE015A06C6EFE0DFE0FD576317F50088
:103FF0009387C15B9C4391C31CC0B24022444101E2
:104000008280411122C42A842E8523AE015A06C61D
:10401000C520FD576317F5009387C15B9C4391C38F
:104020001CC0B240224441018280411122C42A8432
:104030002E85B28523AE015A06C6C920FD576317E7
:10404000F5009387C15B9C4391C31CC0B2402244DE
:1040500041018280411122C42A842E8523AE015A57
:1040600006C65D20FD576317F5009387C15B9C432F
:1040700091C31CC0B240224441018280411122C43C
:104080002A842E85B285368623AE015A06C659206B
:10409000FD576317F5009387C15B9C4391C31CC018
:1040A000B24022444101828093F5F50F2A966314B1
:1040B000C500014582801C21E38EB7FE0505C5BF02
:1040C00082808280411122C42A842E85B285368660
:1040D00023AE015A06C6A920FD576317F500938742
:1040E000C15B9C4391C31CC0B24022444101828009
:1040F0009307800523AEF15A7D5582809307800592
:1041000023AEF15A7D5582809307800523AEF15A84
:10411000014582809307800523AEF15A7D55828048
:104120009307800523AEF15A7D5582800D0A2070D9
:1041300075745F6F75745F6E3A5B25785D0D0A006C
:104140000D0A207365745F6F75745F6E3A5B257836
:104150005D0D0A000D0A20636C725F6F75745F6EEF
:104160003A5B25785D0D0A0053797374656D436C75
:104170006B3A25640D0A00004368697049443A258A
:104180003038780D0A0000000D0A207374617274D3
:10419000206C6F6F700D00000000C1C081C1400134
:1041A00001C3C003800241C201C6C006800741C7E7
:1041B0000005C1C581C4400401CCC00C800D41CDB7
:1041C000000FC1CF81CE400E000AC1CA81CB400B87
:1041D00001C9C009800841C801D8C018801941D957
:1041E000001BC1DB81DA401A001EC1DE81DF401FE7
:1041F00001DDC01D801C41DC0014C1D481D54015F7
:1042000001D7C017801641D601D2C012801341D306
:104210000011C1D181D0401001F0C030803141F196
:104220000033C1F381F240320036C1F681F74037E6
:1042300001F5C035803441F4003CC1FC81FD403DB6
:1042400001FFC03F803E41FE01FAC03A803B41FB86
:104250000039C1F981F840380028C1E881E94029D6
:1042600001EBC02B802A41EA01EEC02E802F41EFE6
:10427000002DC1ED81EC402C01E4C024802541E5F6
:104280000027C1E781E640260022C1E281E3402306
:1042900001E1C021802041E001A0C060806141A116
:1042A0000063C1A381A240620066C1A681A74067E6
:1042B00001A5C065806441A4006CC1AC81AD406DB6
:1042C00001AFC06F806E41AE01AAC06A806B41AB86
:1042D0000069C1A981A840680078C1B881B9407956
:1042E00001BBC07B807A41BA01BEC07E807F41BFE6
:1042F000007DC1BD81BC407C01B4C074807541B5F6
:104300000077C1B781B640760072C1B281B3407305
:1043100001B1C071807041B00050C1908191405195
:104320000193C053805241920196C05680574197E5
:104330000055C19581944054019CC05C805D419DB5
:10434000005FC19F819E405E005AC19A819B405B85
:104350000199C059805841980188C04880494189D5
:10436000004BC18B818A404A004EC18E818F404FE5
:10437000018DC04D804C418C0044C18481854045F5
:104380000187C047804641860182C0428043418305
:104390000041C18181804040DA1A0000E418000029
:1043A000D01B0000A0190000D01B000096180000D0
:1043B0003A170000D01B0000A8180000CC1800001D
:1043C000BE1A0000D81B00001201100102000040BC
:1043D000861A0CFE010001020001000009024300E0
:1043E00002010080320904000001020201000524DC
:1043F0000010010524010001042402020524060026
:10440000010705810340000109040100020A0000C0
:10441000000705020240000007058302400000007B
:104420000E037700630068002E0063006E0000003A
:10443000160355005300420020005300650072002F
:10444000690061006C00000016033000310032008A
:1044500033003400350036003700380039000000E2
:10446000000000000000000000000000000000004C
:10447000000000000000000000000000000000003C
:10448000000000000000000000000000000000002C
:10449000000000000000000000000000000000001C
:1044A000000000000000000000000000000000000C
:1044B00000000000000000000000000000000000FC
:1044C000232D302B20000000686C4C00656667458A
:1044D00046470000303132333435363738394142BF
:1044E000434445460000000030313233343536371E
:0C44F000383961626364656600000000FA
:1044FC000102030405060708010203040506070868
:10450C000102030405060708010203040506070857
:10451C000000000080440000A04400006044000043
:10452C00000000000000000000000000000000007F
:10453C00000000000000000000000000000000006F
:10454C00000000000000000000000000000000005F
:10455C00000000000000000000000000000000004F
:10456C00000000000000000000000000000000003F
:10457C00006CDC02444444444444444444444444B5
:10458C00400E00202000002004030904200000201D
:00000001FF
